:10000000000800201D2E0000CDE10000CDE1000021
:1000100097FC0000CDE10000CDE10000CDE1000043
:10002000CDE10000CDE10000CDE10000CDE1000018
:10003000CDE10000CDE10000CDE10000CDE1000008
:10004000CDE10000CDE10000CDE10000CDE10000F8
:10005000CDE10000CDE10000CDE10000CDE10000E8
:10006000CDE10000CDE10000CDE10000CDE10000D8
:10007000D9680000CDE10000CDE10000CDE1000035
:10008000CDE10000CDE10000CDE10000CDE10000B8
:10009000CDE10000DD360000CDE10000CDE1000043
:1000A000CDE10000753800004D380000CDE10000C2
:1000B000CDE10000A5B90000CDE1000099C300002A
:1000C000BB090100B70901008DBB0000C709010091
:1000D000BF09010071C30000C3090100D9C30000BA
:1000E000D5A7000025A8000045C40000CDE1000010
:1000F000CDE10000CDE10000CDE10000CDE1000048
:10010000CDE10000CDE10000CDE10000CDE1000037
:10011000CDE10000CDE10000CDE10000CDE1000027
:10012000CDE10000CDE10000CDE10000CDE1000017
:10013000CDE10000CDE10000912400008124000009
:10014000013800D0FCE7704730B5ADF23C4D0446B5
:100150006B4B1B68002B5AD00DF224420221204623
:1001600010F064F9664B18601B68002B5ED0644B7E
:100170001B68002B48D0624B19680DF20C422046D8
:1001800010F058F9054600285FD1002302939DF82E
:100190001934002B00F08F80032002F0D9F90028D9
:1001A00063D1584B1B78002B6DD19DF91A54564BD7
:1001B0001B685B1B554880FB0320DB17C3EB20103B
:1001C0000CF056FB41EC110B9FED4B0B00F0C4FD06
:1001D0008DED000B2B464E4A4FF4806103A806F0CC
:1001E00003FF03A802F020F80025454B19682046BC
:1001F00010F024F90446002868D19DF819341BB981
:10020000444B1B78002B71D10DF23C4D30BD0120C9
:1002100002F09EF900289FD00DF014FF0DF013FF9F
:100220003D493E4B18680FF060FB95E7012002F056
:100230008FF900289BD00DF005FF0DF004FF384921
:10024000364B18680FF051FB91E7012002F080F95E
:1002500000289AD00DF0F6FE0DF0F5FE2A46314941
:100260002E4B18680FF041FB8FE70DF0EBFE0DF001
:10027000EAFE9DF81B349DF91A242B492748006893
:100280000FF033FB8DE79DF91A241F4B1A601D4BAD
:1002900000221A70032002F05BF9002885D00DF0CF
:1002A000D1FE0DF0D0FE184B1A6820491B4B186880
:1002B0000FF01BFB79E71E480EF033F802AA0DF28F
:1002C00024411C4802F06CFA05468EE7022002F039
:1002D0003FF9002891D00DF0B5FE0DF0B4FE224696
:1002E00015490E4B18680FF000FB86E72946029867
:1002F00002F0D6FA88E700BF0000000000002440AA
:10030000680C00200C200020000800201F85EB5105
:10031000D00E01001C090020C40D0100F8100020BF
:100320003C0E01007C0E0100A40E0100B80E01007D
:1003300040190100680B0020F00E010000000000D1
:1003400030B58BB0002306930793089309938A4B2B
:1003500006938A4906A806F089FE894B186018B3EF
:100360000023059305A910F059F80546002836D05A
:10037000844C854920680FF0B8FA0DF063FE0DF04B
:1003800062FE824B00937623814A824920680FF0F7
:10039000ACFA814A814920680FF0A7FA2A468049C1
:1003A00020680FF0A2FAFEE7764C774920680FF03C
:1003B0009CFA0DF047FE0DF046FE744B00936B2344
:1003C000734A744920680FF090FA764A734920689E
:1003D0000FF08BFA744920680FF087FAFEE7684C3B
:1003E000724A734B1968206807F0D0F80021206822
:1003F0000EF07AFD0546D8B1624C634920680FF0D3
:1004000074FA0DF01FFE0DF01EFE604B00938B235F
:100410005F4A604920680FF068FA5F4A5F492068C8
:100420000FF063FA2A46634920680FF05EFAFEE790
:100430004FF00111524B18680FF090FF0546D8B1EC
:10044000504C514920680FF050FA0DF0FBFD0DF0B3
:10045000FAFD4E4B009397234D4A4E4920680FF00A
:1004600044FA4D4A4D4920680FF03FFA2A46524956
:1004700020680FF03AFAFEE73DA3D3E90023CDE967
:1004800000234FF0FF324FF0FF333D4908680FF073
:10049000ABFE0546D8B13B4C3B4920680FF025FA2E
:1004A0000DF0D0FD0DF0CFFD384B0093A023384A5E
:1004B000384920680FF019FA374A384920680FF098
:1004C00014FA2A463D4920680FF00FFAFEE73C4B2C
:1004D0001B88ADF81030ADF80C3004A9284B186813
:1004E0000FF06AFE0546D8B1264C274920680FF068
:1004F000FCF90DF0A7FD0DF0A6FD244B0093B023F1
:10050000234A244920680FF0F0F9234A2349206840
:100510000FF0EBF92A462B4920680FF0E6F9FEE7C9
:1005200003A9174B18680FF05DFE054608B90BB01C
:1005300030BD144C144920680FF0D7F90DF082FD3E
:100540000DF081FD114B0093B523114A114920682C
:100550000FF0CBF9104A114920680FF0C6F92A466E
:10056000194920680FF0C1F9FEE700BFAFF3008022
:1005700018AC0155E203000035E0000017E0000070
:1005800030080020F81000205C1C0100F818010061
:1005900038170100280F0100A8170100680F01009B
:1005A000DC170100581701008017010021E000004E
:1005B0001808002008180100401801006818010000
:1005C000F418010094180100C41801000000000094
:1005D0002DE9F04F2DED028B91B082460C469346EB
:1005E0001D46DDE91C23104619460CF013FC0028BB
:1005F00000F007814FF0FF32B14BDDE91C010CF038
:1006000031FC002840F0FD804FF0FF326FF4801382
:10061000DDE91C010CF008FC002840F0F28000220B
:100620000023DDE91C010CF0FFFB002840F0FE80F8
:100630009DED1C7B8DED067B209B13F480630F9357
:1006400001D106231E93DDE906010246C1F30A50DB
:10065000C1F31303904643F07F5949F44019A0F2C7
:10066000FF300CF005F984A3D3E900230CF06AF9FC
:1006700083A3D3E900230BF0AFFF06460F46002209
:10068000904B404649460BF0A5FF7FA3D3E90023DA
:100690000CF058F902460B46304639460BF09CFFE9
:1006A0000CF0EAFB06460CF0E3F88046894678A396
:1006B000D3E900230CF046F90022834B0BF08CFFAA
:1006C0000CF0DAFB074674A3D3E900234046494601
:1006D0000CF038F98046894638460CF0C9F870A30A
:1006E000D3E900230CF02EF902460B46404649465A
:1006F0000BF070FF8046894602460B460CF022F94B
:10070000CDE90A0107F2FF3700210022CDE90812E6
:100710003B0509930023089342464B464046494611
:100720000BF05AFFCDE90C0142464B4600204FF03A
:1007300080410BF04FFF804689460022634BDDE984
:100740000A010CF029FA0022614B0BF045FF02462A
:100750000B46DDE90A010CF01FFA00225D4B0BF09D
:100760003BFF02460B46DDE90A010CF015FA024692
:100770000B46404649460BF02FFF02460B46DDE98B
:100780000C010CF009FA0022534B0BF025FFDDE9B8
:1007900008230CF0D7F88046894649EC188BDDE930
:1007A00006230CF05FFB40B1013E0022484B40465F
:1007B00049460CF0F1F941EC180B06F16303C62B26
:1007C0003FD80427209B13F4006F44D036A3D3E90D
:1007D0000023DDE90689404649460CF039FB002834
:1007E0003FD033A3D3E90023404649460CF01CFB1D
:1007F000002836D01E9BB34225DD9E1B731E1E9320
:1008000023E0209B04931F9B03931E9B02939DED6B
:100810001C7B8DED007B2B465A462146504600F04E
:10082000CFF811B0BDEC028BBDE8F08F9FED227BBD
:100830008DED067B1C9B06931D9B03F100430793E4
:10084000FAE60527BEE700231E93209B43F480634E
:10085000209300273E461F9B9F423FD2A3EB0708F1
:100860003EE01E9B002BF6D00F9B002BF3D01E9B6F
:10087000013B1E93EFE700BFFB799F501344D33F2A
:10088000B3C8608B288AC63F61436F63A787D23F96
:1008900071A379094F930A401655B5BBB16B02405D
:1008A000EF39FAFE422EE63F2D431CEBE2361A3FAB
:1008B0000000000080842E410000000000000000C5
:1008C000FFFFEF7F0000F83F0000E03F00002C40FA
:1008D00000002440000018400000F03F4FF00008E6
:1008E000209B13F0020902D00FB14FF000083EB177
:1008F00053EC182BDDE906010CF04EF9CDE90601A9
:1009000000220023DDE91C010CF08EFA00283DD105
:10091000209B23F400630493CDF80C801E9B02936C
:100920009DED067B8DED007B2B465A4621465046B9
:1009300000F046F8002F3FF474AF209B13F0200F17
:100940002CD04FF0450C00F101082B460246214601
:100950006046D04786EAE673A3EBE673052205926C
:10096000013F0497002203920A220292F00F0190A5
:1009700000932B464246214650460FF0E0FAB9F16B
:10098000000F3FF44EAF02461F9F10E0DDE9060165
:10099000024601F10043CDE90623B9E74FF0650CAB
:1009A000D1E7561C2B4621462020D0473246A2EBE9
:1009B0000B03BB42F5D3104633E700BF0000000035
:1009C0002DE9F04F2DED028B95B007900A919246DC
:1009D0009B46DDE92089229D42464B4640464946DA
:1009E0000CF018FA002840D04FF0FF326FF480135B
:1009F000404649460CF018FA002845D14FF0FF3226
:100A00009F4B404649460CF02DFA00284BD198A345
:100A1000D3E90023404649460CF024FA00285AD175
:100A200095A3D3E90023404649460CF0FDF9002880
:100A300051D100220023404649460CF0F5F9002828
:100A400057D100230B93249B13F4806F5CD00024B8
:100A50001F2C5BD8092D59D904F150036B44302267
:100A600003F8202C013D0134F2E7249B0393239BE0
:100A7000029303230193834B00935B4652460A99EA
:100A800007980FF081F92CE1249B0393239B029399
:100A9000042301937C4B00935B4652460A990798C6
:100AA0000FF072F91DE1249B13F004030FD0774A75
:100AB0007BB104232499039123990291019300921D
:100AC0005B4652460A9907980FF05EF909E1704AB1
:100AD000EEE70323EEE7249B0493239B0393029505
:100AE000CDE900895B4652460A990798FFF770FDE9
:100AF000F7E042464B46002000210BF06BFD80469C
:100B0000894601230B939EE70625A0E74046494608
:100B10000CF0B2F906460BF0ABFE02460B4640461F
:100B200049460BF057FD5B4B03EBC50393ED008B80
:100B300053EC182B0BF006FF02460B46CDE90823B9
:100B40000CF0C2F907460BF083FE02460B46DDE9C6
:100B500008010BF03FFD02460B46CDE908230022B9
:100B60004D4B0CF07FF950B3013738460BF070FE57
:100B700002460B4651EC180B0CF060F908B1013637
:100B8000002755BB30460BF073FE02460B4640462D
:100B900049460BF01FFD0746884600223E4B0CF0ED
:100BA00043F938B100223C4B384641460CF05AF923
:100BB000002842D016F0010F3FD001363DE0002260
:100BC000354BDDE908010CF02FF90028D9D117B118
:100BD00017F0010FD5D00137D3E71F2C17D8013DEF
:100BE0002E4BA3FB0723DB08194603EB8303A7EB7C
:100BF0004303621C303304F150000DEB000404F891
:100C0000203C092F02D90F461446E6E714461F2C54
:100C10000AD86B1E45B104F150026A44302102F833
:100C2000201C1D460134F2E71F2C06D804F15003A6
:100C30006B442E2203F8202C01341F2C33D8184A81
:100C400082FB0632F317C3EBA2031A4603EB8303BE
:100C5000A6EB4303611C303304F150000DEB00049C
:100C600004F8203C1646EAB10C46E6E7AFF30080F4
:100C70000000000065CDCD410000000065CDCDC174
:100C8000FFFFEF7F282601002C260100202601000F
:100C90001C260100382601000000E03FCDCCCCCC62
:100CA000676666660C46249B03F00303012B1DD088
:100CB0001F2C09D80B9B002B35D004F150036B443B
:100CC0002D2203F8202C0134249B0393239B0293B1
:100CD00001940CAB00935B4652460A9907980FF0BB
:100CE00053F815B0BDEC028BBDE8F08F239BB3B178
:100CF0000B9B1BB9249B13F00C0F12D0239B013BC1
:100D00002393194606E004F150036B44302203F8A4
:100D1000202C01348C42CBD21F2CF4D9C8E7239964
:100D2000F8E72399F6E7249B13F0040F07D004F1AA
:100D300050036B442B2203F8202C0134C4E7249B7E
:100D400013F0080FC0D004F150036B44202203F8C5
:100D5000202C0134B8E700BFF8B555EC114B2DED50
:100D6000028B57EC106B00F06FF822462B462046A2
:100D70002946B0EE408AF0EE608A0DF0EDF878B9C1
:100D800000220023304639460CF044F8F0B100222E
:100D90000023204629460CF03DF840B19FED288BFA
:100DA000B0EE480AF0EE680ABDEC028BF8BD45ECE7
:100DB000104B0DF0C3F80028F2D02046294600223F
:100DC00000230CF031F80028EAD02EE0B0EE480AFB
:100DD000F0EE680A0DF0B2F8A0B10022002351EC49
:100DE000180B0CF017F80028DAD047EC106B0DF058
:100DF000A5F80028D4D045EC104B0DF09FF8002842
:100E0000CED012E047EC106B0DF098F80028E4D03B
:100E100045EC104B0DF092F80028DED053EC182B67
:100E200051EC180B0DF098F820B90CF0A1FC22231E
:100E30000360B5E70CF09CFC21230360B0E700BF22
:100E4000000000000000F03F2DE9F04F55EC114B81
:100E500025F0004A5AEA04012DED0C8B57EC106B7B
:100E600087B029D1B31987F40022654852419942CD
:100E700070EB020319D222462B46304639460BF05E
:100E8000ABFB41EC100B07B0BDEC0C8BBDE8F08F59
:100E90005C4B43441A43EED1231985F40021584892
:100EA00049419A4270EB0103E5D39FED530B07B024
:100EB000BDEC0C8BBDE8F08F534927F00049B846D4
:100EC00010EE102A8945E3DCAB4611EE103A01D151
:100ED000002ED0D14C498A45DADC01D1002BD7D184
:100EE000B8F1000F43DB0021009183B9464B9A45CE
:100EF00059D0464B9A4569D0BBF1804F00F0B88479
:100F0000434B9B4503D1B8F1000F80F20885029254
:100F100047EC106B0DF008F8029A4AB928F04043EC
:100F20003A4A934200F0A783B9F1000F00F0A3837F
:100F30004FEAD873009A013B049313434DD0354BCD
:100F40009A456DDD03F104739A45334B40F32284D7
:100F5000994540F39784BBF1000F40F3978400203C
:100F600007B0BDEC0C8BBDE8F04F0CF0D3BF2B49A4
:100F70008A4528DCA1F154718A45B4DD4FEA2A5133
:100F8000A1F2FF31142940F38384C1F1340123FA23
:100F900001F000FA01F19942A5D100F00100C0F181
:100FA00002010091A1E7174B4B4413433FF47DAF7F
:100FB000194B994540F3A483BBF1000FC0F28A841A
:100FC00045EC104B5FE7022100918EE7BBF1000F6B
:100FD000C0F2448447EC106B55E732463B4610465E
:100FE00019460BF0F7FA02460B460BF0D5FD41EC23
:100FF000100B48E7AFF30080000000000000F03F56
:101000000000F0FF000010C00000F07F0000F03F83
:101010000000E03F0000E041FFFFEF3FFFFF3F43E4
:10102000E34B002208EA030353B9E24B51EC100BE7
:101030000BF088FC6FF0340241EC100B10EE909A2C
:101040004FEA2953C9F31309DB4EA3F2FF3349EAF0
:1010500006069A18D94B9945059207DDD84B994554
:1010600040F324840132A6F58016059200279FEDF7
:10107000B87B9FEDB96BB0EE47DAF0EE67DAB0EE11
:1010800047CAF0EE67CA51EC160B53EC102B3346EF
:10109000761043EC192B41EC1A0B02460B4646F036
:1010A000005651EC190B0BF095FA8046894653EC2B
:1010B0001A2B51EC190B0BF08FFA02460B4600204D
:1010C000BD490BF069FD41EC1B0B53EC1B2B40465B
:1010D00049460BF037FC0A4606F5002341EC180B95
:1010E00001460020CDE90212002106460246029187
:1010F000D919DDE902AB0F460B46504659460BF0B5
:1011000021FC02460B46404649460BF063FA8046F6
:1011100089463046394653EC1A2B0BF05BFA0246EF
:101120000B4651EC190B0BF055FA52465B460BF08F
:1011300009FC02460B46404649460BF04BFA53EC7D
:101140001B2B0BF0FFFB53EC182B41EC190B51EC54
:10115000180B0BF0F7FB06460F4681A3D3E90023DB
:101160000BF0F0FB80A3D3E900230BF035FA3246F5
:101170003B460BF0E7FB7EA3D3E900230BF02CFAF0
:1011800032463B460BF0DEFB7BA3D3E900230BF09A
:1011900023FA32463B460BF0D5FB79A3D3E9002373
:1011A0000BF01AFA32463B460BF0CCFB76A3D3E9A0
:1011B00000230BF011FA8046894632463B46304602
:1011C00039460BF0BFFB02460B46404649460BF042
:1011D000B9FB524606460F465B4651EC180B0BF026
:1011E000FBF953EC192B0BF0ADFB32463B460026C6
:1011F0000BF0F2F95246804689465B465046594606
:101200000BF0A0FB02460B4643EC1A2B00226D4B61
:101210000BF0E2F942464B460BF0DEF90F46324640
:1012200050463B4659460BF08DFB002282468B46CA
:10123000644B304639460BF0CDF953EC1A2B0BF0CA
:10124000C9F902460B46404649460BF0C3F953EC38
:10125000182B0BF077FB8046894632463B4651EC13
:10126000190B0BF06FFB02460B46404649460BF04C
:10127000B3F9804689465046424659464B460BF0E4
:10128000ABF90F46304642A3D3E900230BF05AFBDB
:1012900052465B4641EC190B304639460BF09AF941
:1012A00002460B46404649460BF094F93AA3D3E96F
:1012B00000230BF047FB804689463046394638A369
:1012C000D3E900230BF03EFB02460B46404649465D
:1012D0000BF082F953EC1C2B0BF07EF906460F46FF
:1012E00005980BF0C5FA3246804689463B4651ECDC
:1012F000190B0BF071F953EC1D2B0BF06DF94246F5
:101300004B460BF069F9002042464B4682468B461D
:101310000BF060F953EC1D2B0BF05CF953EC192B1F
:101320000BF058F902460B46304639460BF052F99D
:10133000009B049A013B134341EC180B40F0D98108
:101340009FED197BB0EE479AF0EE679A3CE000BF44
:101350000000000000000000000000000000F03F5E
:10136000EF4E454A287ECA3F65DBC9934A86CD3F8A
:1013700001411DA96074D13F4D268F515555D53F70
:10138000FFAB6FDBB66DDB3F033333333333E33F08
:10139000000000E009C7EE3FFD033ADC09C7EE3F5D
:1013A000F5015B14E02F3EBE000000000000F0BF1E
:1013B0000000F07F000040430000F03F8E980300E3
:1013C00079B60B0000000840002320462946CDE9ED
:1013D00000450093DDE9008942464B460BF0FAF8E0
:1013E00052465B460BF0AEFA06460F4622462B46A7
:1013F00051EC180B0BF0A6FA02460B463046394664
:101400000BF0EAF842464B4606460F465046594610
:101410000BF098FA04460D463046394622462B46D4
:101420000BF0DAF8D44B8046894699428A4640F35D
:101430003A81D24B0B44034340F058823046394640
:10144000B7A3D3E900230BF0C7F822462B4641ECA3
:10145000180B404649460BF0BDF802460B4651ECCE
:10146000180B0BF0FFFC002840F04082CAF30A532F
:101470004FF48012A3F2FE33C149002042FA03F375
:10148000BAF1000F5344C3F30A52A2F2FF3241FAF9
:1014900002FCC3F31301C2F1140241F4801141FABA
:1014A00002F223EA0C0100920B46024602DA00998E
:1014B00049420091204629460BF08CF8009B0246D9
:1014C00004461B050D46304602930B4639460BF089
:1014D00083F889464FF00008494693A3D3E90023D7
:1014E00040460BF02FFA224682468B462B4640465A
:1014F00049460BF06FF802460B46304639460BF072
:1015000069F88BA3D3E900230BF01CFA04460D46BF
:101510004046494688A3D3E900230BF013FA02465C
:101520000B46204629460BF057F806460F46504614
:10153000324659463B460BF04FF8524604460D469C
:101540005B460BF047F802460B46304639460BF037
:1015500041F8224682468B462B46204629460BF010
:10156000F1F906460F4676A3D3E900230BF0EAF91A
:1015700075A3D3E900230BF02DF832463B460BF060
:10158000E1F973A3D3E900230BF026F832463B467A
:101590000BF0D8F970A3D3E900230BF01BF8324607
:1015A0003B460BF0CFF96EA3D3E900230BF014F800
:1015B00032463B460BF0C6F902460B46204629460A
:1015C0000BF008F806460F462046324629463B46B1
:1015D0000BF0B8F9804689463046394600224FF074
:1015E00080430AF0F7FF02460B46404649460BF09F
:1015F000D3FA524606460F465B46204629460BF074
:10160000A1F952465B460AF0E7FF02460B46304618
:1016100039460AF0DFFF22462B460AF0DBFF02467E
:101620000B46002057490AF0D5FF0C460B4602999D
:1016300002460C44B4F5801FC0F25081104621468A
:1016400053EC192B0BF07EF941EC100B1BE447EC2B
:10165000106B00920CF068FC009A002A7FF4BDAC7D
:1016600028F04043474A934203D0B9F1000F7FF47A
:10167000B4AC00230093BBF1000F07DA002041490E
:1016800053EC102B0BF088FA41EC100BB8F1000F63
:10169000BFF6F9AB3C4B009A4B44134340F0318109
:1016A00053EC102B9BE421F00043DFF8E4C06345CA
:1016B00040F3CC80354B0B4403430AD122462B46E2
:1016C0000AF088FF32463B460BF0C2FB00283FF48D
:1016D000CDAE0022002351EC190B0BF0A5FB003816
:1016E00018BF012007B0BDEC0C8BBDE8F04F0CF02B
:1016F00007BC9FED1D7BB0EE479AF0EE679A63E65C
:10170000BBF1000F9FED1A0BBFF6BDAB05F1004317
:1017100000EE104A00EE903AFFF7B5BBAFF3008041
:10172000FE822B654715973C00000000432EE63FE4
:10173000EF39FAFE422EE63F396CA80C615C20BE00
:10174000D0A4BE726937663EF16BD2C541BDBB3EC7
:101750002CDE25AF6A56113F93BDBE166CC1663FA5
:101760003E5555555555C53F000000000000F03F5F
:101770000000000000000000FFFF8F40000070BF6D
:10178000FFFF0F000000F03F000010C000346F3F6B
:10179000FFCB9040994575DB7B4B99453FF7DBAB21
:1017A0000022794B51EC100B0AF014FF06460F464D
:1017B00065A3D3E900230BF0C5F882468B4630467B
:1017C000394663A3D3E900230BF0BCF800226F4B2A
:1017D00041EC180B304639460BF0B4F802460B4684
:1017E0005DA1D1E900010AF0F5FE32463B460BF05F
:1017F000A9F802460B46002065490AF0EBFE804638
:10180000894632463B46304639460BF09BF8024645
:101810000B46404649460BF095F851A3D3E9002307
:101820000BF090F802460B4651EC180B0AF0D2FE72
:1018300006460F465046594632463B460AF0CCFE15
:10184000002052465B4682468B4669E5504A9342E9
:1018500075DCDDE90012029100913BE600204A4967
:1018600032463B460BF098F941EC100BFFF70BBBEF
:1018700032463B46304639460BF064F841EC100BDB
:10188000FFF701BBBBF1000FFFF669AB002029E7B2
:10189000002B7FF4DCAEC1F114014AFA01F000FA2A
:1018A00001F1514544D00093FFF723BB9FED2E7B00
:1018B0004FF48027B0EE47DAF0EE67DA9FED2C7B2D
:1018C000B0EE47CAF0EE67CA9FED2B7B51EC170BC9
:1018D000FFF7DBBB9FED2A0BFFF7D5BA009843EC6F
:1018E000102B00F059F851EC100BA9E60022002350
:1018F00051EC190B0BF098FA003818BF0120FFF7D4
:101900002FBB009B012B7FF4BEAA10EE901A10EEA5
:10191000102A01F1004343EC102BFFF7B4BA47EC57
:10192000106B07B0BDEC0C8BBDE8F04F0CF002BAA9
:1019300000F00100C0F102030093FFF7DABA1B15B3
:1019400096E500BFAFF30080000000604715F73F49
:1019500044DF5DF80BAE543E555555555555D53FB2
:10196000FE822B654715F73F0000004003B8E23FB9
:1019700006D0CF43EBFD4C3E000000000000F83FD6
:1019800000000000000000000000F03F0000D03F19
:101990000000E03F0000000038B553EC102BC3F30B
:1019A0000A519C46044689BB23F0004C10EE101AE5
:1019B0005CEA010129D03E4D194600223D4B10EE54
:1019C000100A0AF0BFFFAC4202460B4616DB8C46FB
:1019D000C1F30A513639214440F2FE70814221DCC4
:1019E000002947DC11F1350F34DA4CF250318C42CA
:1019F00018DC002B26A1D1E9000143DB24A3D3E9A5
:101A000000230AF09FFF41EC100B38BD40F2FF7E2F
:101A10007145E0D110EE100A19460AF0DDFD41ECE7
:101A2000100B38BD002B1CA1D1E9000107DB1AA364
:101A3000D3E900230AF086FF41EC100B38BD18A152
:101A4000D1E9000114A3D3E900230AF07BFF41ECA4
:101A5000100BF3E7184836311446184B0CEA000017
:101A6000002240EA0155204629460AF06BFF41EC6E
:101A7000100B38BD10480CEA000040EA015343EC5B
:101A8000102B38BD08A1D1E90001B7E7AFF3008002
:101A900059F3F8C21F6EA5019C7500883CE4377E9F
:101AA0009C7500883CE437FE59F3F8C21F6EA5818F
:101AB000B03CFFFF00005043FFFF0F800000903C50
:101AC00010B5054C237833B9044B13B1044800E03A
:101AD00000BF0123237010BD480B00200000000050
:101AE0002C74010008B5034B1BB10349034800E007
:101AF00000BF08BD000000004C0B00202C7401004A
:101B0000A3F5803A704700BF174B002B08BF134B5B
:101B10009D46FFF7F5FF00218B460F461348144AF8
:101B2000121A0EF07BFF0E4B002B00D098470D4B86
:101B3000002B00D098470020002104000D000D4824
:101B4000002802D00C4800E000BF0BF081FB200011
:101B5000290000F027FB0BF067FB00BF0000080026
:101B600000000000000000000008002030090020F4
:101B70002C200020000000000000000010B5032011
:101B800000F0E6FC40B9032000F0E2FC70B903204D
:101B900000F0DEFCC8B910BD0CF054FA0CF053FA9A
:101BA0001249134B18680DF0A0FEECE70CF04AFA4E
:101BB0000CF049FA0E4B1C6802F094FF02460B46EB
:101BC0000C4920460DF091FEE1E70CF03BFA0CF0D9
:101BD0003AFA074B1868084B1B7823B1074A0849A3
:101BE0000DF083FED7E7074AF9E700BFD80B0100E5
:101BF000F8100020E00B01001C090020D40B0100AC
:101C0000F80B0100D00B010008B5094B01221A7036
:101C1000032000F09DFC00B908BD0CF013FA0CF095
:101C200012FA0449044B18680DF05FFEF4E700BF98
:101C30000E2000200C0C0100F810002010B5836865
:101C4000C26853F822301B7843B90C4B00221A703B
:101C50000B4C032000F07CFC28B910BD074B01227F
:101C60001A70084CF5E70CF0EDF90CF0ECF922468F
:101C70000549064B18680DF038FEEEE71C090020F8
:101C8000D00B0100D40B0100240C0100F81000203F
:101C900010B50446032000F05BFC00B910BD0CF049
:101CA000D1F90CF0D0F922460249034B18680DF027
:101CB0001CFEF3E7080C0100F810002030B58FB0CF
:101CC000002000F01FFC044600F04EF935480CF0EF
:101CD00023FB35480CF020FB00230793089309935E
:101CE0000A930B930C930D93642309930793C023DA
:101CF0000A93B623089307A9204605F07FFA00BB94
:101D00002A4A05AB92E8030083E80300284B0DF153
:101D1000040C0FCB8CE80F001022614620460EF019
:101D200077FB0546F0B905A920460EF061FB054694
:101D300040BB00F047FA1F48FFF7AAFF20460FB04C
:101D400030BD0546022000F003FC0028D8D00CF07E
:101D500079F90CF078F92A461749184B18680DF0F4
:101D6000C4FDCDE7022000F0F3FB0028DBD00CF02F
:101D700069F90CF068F92A461149104B18680DF002
:101D8000B4FDD0E7022000F0E3FB0028D1D00CF036
:101D900059F90CF058F92A460A49084B18680DF011
:101DA000A4FDC6E74019010058190100E80C010024
:101DB000D40C0100B80C01003C0C0100F81000200C
:101DC000640C0100900C0100014B01221A70704755
:101DD0000E20002000B583B0284A136852682849B5
:101DE0000B4211D103F0AA4302F022010B431DD193
:101DF00012F4007F2CD1234B01221A70224B0022B7
:101E00001A7003B05DF804FB012000F0A1FB00286C
:101E1000F1D00CF017F90CF016F9184BD3E90023A8
:101E20001A491B4800680DF060FDE4E7012000F04E
:101E30008FFB0028DFD00CF005F90CF004F90F4BF4
:101E4000D3E900231349124800680DF04EFDD2E794
:101E5000022000F07DFB0028CDD00CF0F3F80CF050
:101E6000F2F80D4B1B780093044BD3E900230B4988
:101E7000074800680DF039FDBDE700BF30090020BC
:101E8000088D01001D0900200D200020F00C01002C
:101E9000F8100020180D010008200020400D01005E
:101EA00010B5044600F0B8FB01460022204605F0BC
:101EB00019F900B910BD0446022000F049FB0028C2
:101EC000F8D00CF0BFF80CF0BEF822460249034BE4
:101ED00018680DF00AFDEDE78C0D0100F8100020E8
:101EE00038B504461B4B1B68012B1AD0194B1B68D5
:101EF000012B02DD174B00221A60164A13680133CA
:101F0000136010221449204600F078FC00F084FB96
:101F1000014600230122204605F0D6F8044640B9C8
:101F200038BD0E4D28460CF001FA28460CF0F4F9A5
:101F3000DCE7022000F00CFB0028F1D00CF082F866
:101F40000CF081F822460649064B18680DF0CDFCCE
:101F5000E6E700BF640B00200408002058190100C8
:101F6000A80D0100F810002030B583B04FF4807345
:101F7000002213490EF056FAB0F5807F01D103B06C
:101F800030BD04460F4D104928680DF0AEFC0CF032
:101F900059F80CF058F80D4B0093A5230C4A0D4945
:101FA00028680DF0A2FC0C4A0C4928680DF09DFC35
:101FB0004FF4807322460A4928680DF096FCFEE72C
:101FC0006C0C0020F81000205C1C0100F80F0100D0
:101FD000140F0100280F0100340F0100680F0100E9
:101FE000800F010038B505461C461B4B1A605C602B
:101FF00002F0AA4104F022030B4305D012F0807FC7
:102000000FD0164B01211970154B1A4205D012F052
:10201000080F0AD1134B01221A7014F4007F0DD15E
:1020200038BD104B01211970EEE728460EF004FA76
:102030000D4B18600D4B01221A70EEE7002211467D
:1020400028460EF04CF90A4B18701B78002BE7D08D
:10205000044B01221A70E3E7300900200B20002016
:10206000088D010009200020680C00200A200020B3
:102070000820002008B50CF004F9012800D008BDA4
:10208000014B01221A70FAE70C20002010B504461B
:102090000EF026F800B110BD034B01220349204683
:1020A0000EF010F8F7E700BFC91D000040420F0016
:1020B00010B50446324B1B782BB1314B00221A70FD
:1020C000304B03221A702046FFF7E0FF2D4B1B78A0
:1020D000DBB2032B43D8DFE803F0021D303F2A4B6D
:1020E0001B784BB9294B1B786BB1284B00221A7017
:1020F000244B02221A7029E0234B00221A7020463A
:10210000FFF7CEFE22E0224B1B78FBB11D4B0122D4
:102110001A701BE01E4B1B7843B91E4B1B78ABB1EA
:102120000023184A13701B4A13700FE0184B00224B
:102130001A702046FFF7D4FE08E02046FEF704F8A8
:10214000114B01221A700F4B00221A70124B002003
:102150000021C3E9000110BDFFF73CFEF6E70120B6
:1021600000F0F6F90028F1D00BF06CFF0BF06BFFDC
:10217000044B1A7809490A4B18680DF0B6FBE5E7DD
:10218000092000200D2000201D0900200A20002029
:102190000E2000200B20002030090020D80F010065
:1021A000F810002008B50DF0BBFDFFF787FD044BCC
:1021B00018600DF0C1FD024B1868FFF779FFF8E7D2
:1021C0006C0D002030B585B00BF055FF002002F0FB
:1021D000C3FD114C204602F02DFE6FF07F4363607B
:1021E0000025A56020460CF034FC0C4920460CF07C
:1021F0008DFD0B4B1A68511C1960012302930523B6
:10220000019300932B46D2B2064920460CF09AFD6A
:1022100002F0D0FD05B030BD740D00203C1D010062
:10222000700D00200810010070B584B0044600262F
:102230000A4B1E600A4D28460CF00BFC012302934A
:1022400005230193009333460322214628460CF0D0
:1022500079FD02F0AFFD04B070BD00BF700D00202D
:10226000740D002030B585B0094C2268094B1A6006
:10227000094D0A4B2B600A4B019303F0ABFD029012
:102280002B68039301A920680CF063FE05B030BDF4
:102290002C080020F01C0020EC1C0020200800204E
:1022A0008C16010038B503F095FD0446064D2B68E9
:1022B000D3F8B00203F082FD28680CF05EFE2046E1
:1022C00003F07CFD38BD00BF2C08002008B501F0EC
:1022D00077FD0CF073FA224A136F23F0070343F0E3
:1022E0000303136701F0EAFE1E4B9B6A13F0020F13
:1022F00002D11D4B01229A62194BD3F8202122F002
:10230000030242F00202C3F82021D3F8242122F074
:10231000070242F00202C3F82421D3F8402122F040
:10232000030242F00202C3F84021D3F8602122F0F8
:10233000030242F00202C3F86021D3F8402222F0E7
:10234000030242F00202C3F84022D3F8002222F036
:10235000070242F00202C3F80022002008BD00BFBD
:102360000080005000C0005000E0005008B502F0AE
:10237000BFFB012810D003F005FD0BF091FE03F028
:1023800077FC03F0E5FC03F099FCFFF79FFF03F0F7
:1023900081FC0BF079FE08BD094B5A6E03F58053A2
:1023A0004FF48021596603F510430421196212F499
:1023B000802FE0D1A3F500434FF480225A66DAE77C
:1023C0000080005030B59FB0284C0DF1580CA64647
:1023D000BEE80F00ACE80F009EE80F008CE80F008D
:1023E0002C2200210DEB02000EF018FB204B0B936A
:1023F00001228DF8312038230D9305230F930623F6
:102400001193082313930723159309AB203494E801
:10241000030083E803000DF10C0C002403940494E2
:1024200005940694079408948CE803003E238DF8E5
:1024300014303F238DF815300E4B0693202307935D
:102440008DF820208DF821200B4B00930BAB16AAA2
:1024500061460A4803F0E0FC054621464FF4E130AE
:102460000BF082FE28461FB030BD00BFA41601004D
:102470000000035AC01000205C100020E010002073
:1024800008B502480DF09DFA08BD00BFE01000201D
:1024900008B502480DF095FA08BD00BFE010002015
:1024A00070B582B005460E460E4C0F4920680DF0FF
:1024B0001CFA0BF0C7FD0BF0C6FD0C4B0093392343
:1024C0000B4A0C4920680DF010FA0B4A0B492068A2
:1024D0000DF00BFA33462A46094920680DF005FA3B
:1024E000FEE700BFF81000205C1C01001817010077
:1024F000CC160100280F0100F0160100680F010042
:10250000F416010082B0054B019302AB03EB80008F
:1025100050F8043C186802B0704700BF3008002033
:1025200008B503480BF0A6FE02480BF0A3FE08BD59
:10253000101901002819010008B503480BF0E7FE47
:1025400002480BF0E4FE08BD4019010058190100D3
:1025500003460B4A107828B10A4A12789A4202D2EE
:10256000002000E00120084A12783AB1074A1278A8
:1025700042FA03F313F0010F00D10020704700BFAF
:102580001E0900201F0900200F2000202009002024
:1025900008B5084B01221A70074B00221A70074B2E
:1025A00004221A70064B1F221A7003F013FC054B0D
:1025B000186008BD1E0900200F2000201F09002000
:1025C00020090020F810002038B50F4B1B689B68CD
:1025D000DC891D8A844205D8854203D30B4B1880C1
:1025E000012004E00120FFF7B3FF08B9002038BD47
:1025F0000BF028FD0BF027FD2B4622460449054829
:1026000000680DF072F9F1E718080020E81F0020BB
:1026100070190100F8100020014B188880B2704733
:10262000E81F002010B582B00020FFF7CDFF012881
:1026300001D102B010BD0D4C0D4920680DF055F9C7
:102640000BF000FD0BF0FFFC0A4B009359230A4AE4
:102650000A4920680DF049F9094A0A4920680DF035
:1026600044F9094920680DF040F9FEE7F810002010
:102670005C1C0100841A010098190100280F010058
:10268000201A0100680F0100301A010010B5002067
:10269000FFF738FF0446FFF7BFFF01460022204640
:1026A00004F020FD044608B9204610BD0220FFF7C3
:1026B0004FFF0028F8D00BF0C5FC0BF0C4FC2246FD
:1026C0000249034B18680DF010F9EDE7541A0100A8
:1026D000F810002010B50320FFF73AFF00B910BD35
:1026E0000BF0B0FC0BF0AFFC044B1C68FFF794FF41
:1026F0000246034920460DF0F8F8F0E7F8100020F4
:102700009C1A010008B58368C26853F82230187813
:10271000FFF75AFF88B10320FFF71AFF18B9FFF738
:10272000B5FFC8B908BD0BF08DFC0BF08CFC12494D
:10273000124B18680DF0D9F8F1E70220FFF708FFF7
:102740000028ECD00BF07EFC0BF07DFC0C490B4B11
:1027500018680DF0CAF8E2E70220FFF7F9FE00283A
:10276000E0D00BF06FFC0BF06EFC0649034B1868D1
:102770000DF0BBF8D6E700BFB81A0100F810002032
:10278000E01A0100001B0100014B1878704700BFE0
:1027900010200020014B1870704700BF102000204F
:1027A00070B505460C4616468A8889680EF00FF902
:1027B000E16831B16288A088121A92B228440EF002
:1027C00006F935600A4B1B780BB9608870BD032091
:1027D000FFF7BEFE0028F8D00BF034FC0BF033FC02
:1027E00062880449044B18680DF07FF8EDE700BFDC
:1027F000102000201C1B0100F810002070B584B0D0
:102800000391154601230DF00BFE0446854204D1C9
:10281000194B1B78FBB904B070BD184E18493068CD
:102820000DF063F80BF00EFC0BF00DFC154B009354
:102830004FF4A373144A154930680DF056F8144A42
:10284000144930680DF051F82B4622461249306881
:102850000DF04BF8FEE70320FFF77AFE0028DAD0F0
:102860000BF0F0FB0BF0EFFB03AB22460B490348E8
:1028700000680DF03AF8CEE710200020F810002094
:102880005C1C0100C41C0100401B0100280F01005A
:10289000C81B0100680F0100E81B0100341C010087
:1028A00070B538B10D460646E9B90120FFF750FE74
:1028B00078B970BD0120FFF74BFE0028F9D00BF06E
:1028C000C1FB0BF0C0FB2A492A4B18680DF00DF82C
:1028D000EFE70BF0B7FB0BF0B6FB2749254B186869
:1028E0000DF003F8E5E70320FFF732FE08B90024F6
:1028F0000FE00BF0A7FB0BF0A6FB20491D4B18685F
:102900000CF0F3FFF3E70320FFF722FEB0B9013428
:10291000A4B2AC421DD26B1E9C42F4D00320FFF740
:1029200017FE0028F3D00BF08DFB0BF08CFB325D13
:102930001349104B18680CF0D8FFE8E70BF082FB46
:102940000BF081FB325D0F490A4B18680CF0CDFF8C
:10295000DDE70320FFF7FCFD0028AAD00BF072FB97
:102960000BF071FB0849034B18680CF0BEFFA0E7A1
:10297000601C0100F81000207C1C0100941C010068
:10298000B81C0100B01C01005C1C010010B5032044
:10299000FFF7DEFD00B910BD0BF054FB0BF053FB4D
:1029A000064B1C68FFF7F0FE28B1054A0549204692
:1029B0000CF09BFFEFE7044AF8E700BFF810002097
:1029C000D40B0100D41C0100D00B010010B58368AA
:1029D000C26853F822301B783BB10120FFF7DAFEC2
:1029E0000320FFF7B5FD20B910BD0020FFF7D2FE90
:1029F000F6E70BF027FB0BF026FB064B1C68FFF7F6
:102A0000C3FE28B1044A054920460CF06EFFEBE7EF
:102A1000034AF8E7F8100020D40B0100D41C010091
:102A2000D00B010000B583B002218DF80010002208
:102A300005480BF040FB0190082168460BF047FB6E
:102A400003B05DF804FB00BF006A18002DE9F043F5
:102A500089B004468846174601AD294E0FCE0FC5F2
:102A600096E8070085E80700D4F80090254B9945C3
:102A700043D003F5804399453DD04FF0FF356D01BC
:102A800005F1A04505F57035D5F81C6606F004067D
:102A900001213A2001F0CAF80121606801F0C6F86E
:102AA00000230422617B207B01F01EFE0023042210
:102AB000617A207A01F018FECDF80C80ADF8147020
:102AC00001238DF8123001A948460BF0F9FE237A54
:102AD000627A43EA0243C5F83436237B627B43EAD9
:102AE0000243C5F8303646F01806C5F81C660020CB
:102AF00009B0BDE8F0830125C1E70025BFE700BFAD
:102B0000EC1C010000C00550014B01221A61704706
:102B100000F0035010B582B081B1044603F08CFD83
:102B2000217B49000123019300230093054AB0FB58
:102B3000F1F105480DF0B3F802B010BD024803F002
:102B40004BFDF9E7092B0000FC100020F0B583B025
:102B500005460F4C04F5805340261E67407B03F06A
:102B6000D9FE0423ADF806300A4F02220DF106010A
:102B700038460BF008FB38460BF017FBA87B03F038
:102B8000C9FE04F500542667002003B0F0BD00BF65
:102B900000C003504C08002038B5054601213A20FA
:102BA00001F044F80022A9681048FFF74FFF002306
:102BB00004220621022001F097FD00230422194679
:102BC000184601F091FD0A4CAC46BCE80F000FC45A
:102BD000DCF8003023600121064B19702846FFF70E
:102BE00099FF2846FFF7B2FF002038BD4C080020AF
:102BF0001C110020112000202DE9F04383B08146F4
:102C00000D461F460688037903FB06F6F61002F10F
:102C10000108254B40221A67407B03F07BFE1FFA18
:102C200088F84FEA08239BB243F00103ADF8063061
:102C300002220DF106011D480BF0A5FA00240AE05E
:102C40004FF6FF73ADF8063002220DF1060117486A
:102C50000BF099FA0134BC4214D23246294613488B
:102C60000BF091FA35447B1EA342E9D008EB040235
:102C700092B2013292B2120292B242F0FF02ADF869
:102C80000620E1E7094C20460BF08FFA99F80E0078
:102C900003F040FE064B40221A6720460BF08BFAE9
:102CA000002003B0BDE8F08300D003504C080020A2
:102CB00000E00350034B1B780BB103487047002022
:102CC000704700BF112000201C11002010B586B0F5
:102CD0000DF1040C054C0FCCACE80F002368CCF8C8
:102CE000003001A8FFF758FF06B010BD081D010015
:102CF000014B10221A61704700E00350014B102273
:102D00001A61704700D00350F0B589B001AC3F4D57
:102D10000FCD0FC495E8070084E8070001213A2091
:102D200000F084FF0121282000F080FF01248DF8AD
:102D30001240374B0393374F01A938460BF0C0FDC3
:102D4000234604220021022001F0CEFC002322466B
:102D50002146022001F0C8FC234604220221084635
:102D600001F0C2FC234604221146002001F0BCFC05
:102D7000294D4FF00213C5F83036A3F58033C5F85E
:102D80002C360226C5F834661C23C5F81C364FF4D1
:102D9000487003F0BFFDFFF7ABFF142003F0BAFD4E
:102DA000FFF7ACFF232003F0B5FDFFF7A1FFB9212A
:102DB00038460BF0DAFDFFF7A1FF00231A4619464B
:102DC000304601F091FC00231A462146304601F0BE
:102DD0008BFC234600223146304601F085FC234619
:102DE00000220421104601F07FFC384601F0A2FECB
:102DF0000021C5F83016C5F82C16C5F83416C5F8EC
:102E00001C16282000F012FF09B0F0BD1C1D0100A7
:102E100000127A0000C0055000C0035008B500F051
:102E20002DF8124A0AE01068516850F8230041F862
:102E30002300013391688B42F5D30C320C4B9A423C
:102E400001D20023F6E70B4A08E01168002041F8A0
:102E50002300013351688B42F7D30832064B9A4264
:102E600001D20023F6E7FEF74FFE00BF34740100E5
:102E700040740100407401004074010010B4154B0F
:102E8000154A9A60D3F8882042F47002C3F888206B
:102E9000124A4FF40041916601F1884101F5005258
:102EA0004FF0FF3010664FF6DF7050660220C3F817
:102EB000D000BFF34F8FBFF36F8F09480824C0F8CD
:102EC00080414FF44033D36004600B615DF8044BE4
:102ED000704700BF00ED00E00000000000900050CF
:102EE00000E100E0014B1868704700BF6008002057
:102EF00008B5094B1B6F03F00703022B04D0032B0B
:102F000005D0012B06D0FEE7FFF7ECFF03E0034BF3
:102F1000186800E0024808BD0080005064080020E6
:102F2000002D310108B5FFF7E3FF054B1B6FC3F31D
:102F300003330133B0FBF3F0024B186008BD00BF50
:102F4000008000505C0800200048704700B4C404B2
:102F5000014B1868704700BF6408002008B5064B95
:102F60001860064B1B6F03F00703032B00D008BD4E
:102F7000FFF7D8FFFBE700BF640800200080005087
:102F800000487047002D3101014B1868704700BFA1
:102F900068080020F0B18446F1B110B409E004F1F2
:102FA00020030FE02030181A18D1BCB10CF1010C2D
:102FB00001319CF800400B4BE35C03F00303012B51
:102FC000EDD023460878074A825C02F00302012A0A
:102FD000E9D1E7E701207047012070475DF8044B15
:102FE000704700BFC57201000346064A10680344DB
:102FF000054A934202D8034A136070474FF0FF30EE
:10300000704700BF6C0800200080002008B50B68E6
:103010001A78022A00D108BD08461A7993F805C02B
:1030200002EB4202120106498A5822FA0CF212F00F
:10303000010F0CBF012200221A70FFF71BF8EAE70C
:1030400014C0035030B583B00546046801213A200E
:1030500000F0ECFD002301226179207901F044FBAE
:103060002379617903EB43031B010F4AD358CB400B
:1030700013F0010F0CBF012300232370A379022B4F
:1030800002D0002003B030BD00F08AFB2A46074979
:10309000607900F0ADFB024661792079012301934C
:1030A000009301F08DFAECE714C003500D300000DE
:1030B00002681378022B11D01379507903EB430384
:1030C0001B011349CB58C34003F00100034691791B
:1030D000012904D011B980F00100107070475188A7
:1030E000490089B20B4343F47F4343F0C0034FF6DA
:1030F000E0718B4205D04FF6DF718B4204D05380D4
:10310000704701211170F6E700211170F7E700BF49
:1031100014C0035008B501213A2000F087FD0123B7
:1031200004220321002001F0DFFA00200BF0B5FBA0
:10313000224B0122C3F844244FF460700BF0A6F92F
:103140001F4BD3F8F02042F00102C3F8F020D3F86F
:10315000FC2042F08072C3F8FC20A3F55D43194ABD
:103160001A6000F5D52000F2FC40C008164BA3FB06
:103170000030800A0138154B18610222C3F8F02094
:103180004FF48072C3F804234FF06043104AC3F831
:10319000B02F104AC3F8802ED3F8002E42F480726C
:1031A000C3F8002EFF2283F82020D3F8002E22F44B
:1031B0008072C3F8002E002008BD00BF00D003506D
:1031C00000ED00E0FF03004017916502000004E0FD
:1031D00055CEACC5090001004FF06043D3F8803EE6
:1031E00013F0010F01D1112070470E4AD2F8FC30C4
:1031F00043F08073C2F8FC304FF06043D3F8002EE8
:103200004FF0010C0CFA00FC42EA0C02C3F8002E4D
:1032100053F82030002BE8D04FF0604303F8201023
:103220000020704700ED00E010B4014602784078BD
:1032300002EB42021201064CA358C34003F0010006
:103240008B780BB980F001005DF8044B704700BF2C
:1032500010C00350F0B585B00C4694469DF834106C
:10326000664A1278002A00F0BD800546BCF1070FBF
:1032700000F2BA800A9A002A00F0B8800B9A002A5D
:1032800000F0B6800E9AB2F5006F00F3B38001280B
:103290005BD05B4A02EB0C12127B002A00F0AC8080
:1032A00000220092019202920392564A02EB4C1EB7
:1032B000002C4FD14FEA4C1600209051CEF804005C
:1032C000CEF80800CEF80C009EF8020040F0100086
:1032D0008EF802009EF8030040F030008EF80300E4
:1032E00021B9C1B241F003018EF8031000930E9B87
:1032F000013B444A4FEA4C1002EB4C11165A63F35F
:103300000E1616520A9B8B600B9B4B60CB789DF878
:103310003C2062F38303CB70012D36D0109B002B31
:1033200056D0374A4FEA0C1102EB0C13109850504C
:10333000119A5A6000249C605D737246694660462B
:1033400001F0B0FA204605B0F0BD0C9A002AA0D1D9
:103350002D48F8E72B4F4FEA4C1607EB4C12002094
:10336000B85150609060D060907840F0100090703C
:10337000D07840F00300D0700029B7D107EB4C1291
:10338000C1B241F03001D170B0E70E460A7B42F085
:1033900001020A73D2B242F002020A73CA6804211F
:1033A00061F39F02F26006F1100796E80F0087E8CC
:1033B0000F00F2696FF0030161F39F02F2610C9B51
:1033C0007361012CAAD10B9AB2610C9A7260A5E7C5
:1033D000002DA6D10B4B03EB4C139A786FF304121C
:1033E0009A709EE70948AEE70748ACE70648AAE7A7
:1033F0000548A8E70448A6E70548A4E712200020EE
:1034000030110020B0110020018000F0028000F097
:10341000078000F0134B1B78FBB110B50446F0B1E8
:103420000BF0DFF90023072B13D80F4A02EB03122E
:10343000127B0AB10133F6E723600B4A190102EB54
:10344000031301241C73002454500BF0D0F92046C0
:1034500002E00BF0CCF9054810BD0548704705485F
:10346000FAE700BF1220002030110020048000F095
:10347000028000F0018000F038B50BF0B2F904468C
:103480000023072B06DC0C4A02EB0312127B12B955
:103490000133F6E7002222B120460BF0A8F90748D5
:1034A00038BD01F0A1F90025054B1D7020460BF039
:1034B0009EF92846F4E700BF30110020058000F097
:1034C000122000200F4B1B78BBB110B50446072813
:1034D00015D80BF086F90C4B03EB04131B7B1BB9BF
:1034E0000BF085F909480BE0074B03EB04130024AC
:1034F0001C730BF07CF9204602E005487047054834
:1035000010BD00BF1220002030110020068000F006
:10351000028000F0018000F000B583B0134B1B68FF
:10352000019300238DF804300BF05BF9104B1B78EE
:1035300033B90F4B01221A700BF059F9002309E03F
:103540000BF055F90B480EE00B4A02EB0312002179
:1035500011730133072BF7DD08238DF8073001A81D
:1035600001F06EF9002003B05DF804FB381D010086
:1035700012200020038000F03011002008B50A4B13
:103580001B785BB107280BD8084B03EB00131B7BA0
:1035900043B1002101F046F9002008BD0448FCE7D2
:1035A0000448FAE70448F8E7122000203011002010
:1035B000028000F0018000F0078000F008B50A4B9F
:1035C0001B785BB107280BD8084B03EB00131B7B60
:1035D00043B1012101F026F9002008BD0448FCE7B1
:1035E0000448FAE70448F8E71220002030110020D0
:1035F000028000F0018000F0078000F008B50A4B5F
:103600001B7853B107280AD8084B03EB00131B7B28
:103610003BB101F08FF9002008BD0548FCE70548E3
:10362000FAE70548F8E700BF12200020301100201B
:10363000028000F0018000F0078000F00F4B1B7843
:10364000A3B1072814D8A9B10D4B03EB00131B7BC2
:1036500093B10C4B1B6D012202FA00F0184002D00E
:103660000A700020704700230B70704706487047AF
:1036700006487047054870470548704712200020EB
:103680003011002000000450028000F0018000F0A2
:10369000078000F00C4B1B7873B110B50C4607285F
:1036A0000CD869B1094B03EB00131B7B53B101F03C
:1036B00053F92070002010BD054870470548FAE70F
:1036C0000448F8E70448F6E71220002030110020F3
:1036D000028000F0018000F0078000F0F8B5194B7F
:1036E0001F6D5B6D1F4002D40125002402E0FEE740
:1036F00001346D00072C24D83D42F9D0124B1D65D2
:103700002301124AD358002BF2D002EB0416B16801
:103710000131B16072682046984780F00100C0B264
:10372000737B012BE4D10028E2D0094B03EB441357
:103730001A7B6FF341021A731A7F6FF341021A77F3
:10374000D6E7F8BD000004500020045030110020DE
:10375000B011002010B5044602E0202007E0904799
:10376000DCB194FAA4F00028F7D0B0FA80F001237D
:10377000834024EA0304094B03EB00135A68002A30
:10378000EED0064B03EB00131B7B002BE7D0034B63
:1037900003EB001399689047E2E710BDB0120020D8
:1037A00008B5192000F0A8FC28B1084B4FF00072B2
:1037B000C3F880211A601A2000F09EFC28B1034B48
:1037C0004FF08062C3F880211A6008BD00E100E07C
:1037D00038B505460C460BF004F8044B03EB051313
:1037E0005C6000221A730BF002F838BDB0120020A2
:1037F000F8B505460F4616460AF0F3FF05F0FC0C37
:10380000104BD3F824140023032B0CD8EC1804F02D
:10381000030444EA0C0421FA04F212F0010F03D06D
:103820000133DBB2F0E7FF24FF2C06D0064B03EB9D
:1038300004135F609E6001221A730AF0D8FF2046CD
:10384000F8BD00BF00C00350B012002008B5084BFF
:10385000D3F82404D3F82024104000F0553020F091
:10386000502003F50053C3F82004FFF773FF08BD91
:1038700000C0035008B5084BD3F82404D3F8202423
:10388000104000F0AA3020F0A02003F50053C3F848
:103890002004FFF75FFF08BD00C00350024B4FF448
:1038A00080321A67704700BF0090005038B5054657
:1038B0000C46104BD3F8200100F00300032815D864
:1038C000DFE800F002080C10012305B1286004B104
:1038D000236038BDFFF706FB0523F6E7FFF738FB4B
:1038E0000323F2E7FFF74CFB0223EEE70023184621
:1038F000EBE700BF0080005070B582B006460D4671
:10390000002301930D4BD3F8804104F00304012CF4
:1039100009D0022C0DD000240EB1019B336005B1FB
:103920002C6002B070BD002101A8FFF7BFFF0F247B
:10393000F2E7FFF725FB0190EEE700BF00800050A3
:1039400038B505460C46174BD3F8240100F00700A4
:10395000062823D8DFE800F0040A121A1E0E16000B
:10396000012305B1286004B1236038BDFFF7BAFA1E
:103970000523F6E7FFF7B6FA0623F2E7FFF7E8FAC2
:103980000323EEE7FFF7E4FA0423EAE7FFF7F8FA88
:103990000223E6E70AF01BFC0723E2E700231846B0
:1039A000DFE700BF0080005038B505460C46104BDD
:1039B000D3F8000100F00300032815D8DFE800F079
:1039C00002080C10012305B1286004B1236038BD42
:1039D000FFF7BEFA0323F6E7FFF7D6FA0823F2E76C
:1039E0000AF0F5FB0723EEE700231846EBE700BFDC
:1039F0000080005038B505460C46104BD3F8400106
:103A000000F00300032815D8DFE800F002080C10CE
:103A1000012305B1286004B1236038BD0AF0D9FB49
:103A20000923F6E7FFF7B0FA0823F2E70AF0D4FB20
:103A30000B23EEE700231846EBE700BF00800050A1
:103A400008B50B4BD3F8203203F00303012B08D049
:103A5000022B09D008B10023036021B100230B60C1
:103A600001E0FFF723FF08BDFFF7C4FFFBE700BF3E
:103A70000080005038B505460C46134BD3F80002C1
:103A800000F0070004281BD8DFE800F003090D113F
:103A90001500012305B1286004B1236038BD0AF088
:103AA00098FB0923F6E7FFF76FFA0823F2E70AF01D
:103AB00093FB0B23EEE7FFF735FA800A0E23E9E7C5
:103AC00000231846E6E700BF0080005038B50546E1
:103AD0000C460F4BD3F8403203F00303022B0ED0F9
:103AE000032B10D0012B06D00023184605B1286007
:103AF00004B1236038BD0AF06CFB0923F6E7FFF739
:103B000043FA0823F2E70AF067FB0B23EEE700BF56
:103B10000080005038B505460C46104BD3F86001C4
:103B200000F00300032815D8DFE800F002080C10AD
:103B3000012305B1286004B1236038BD0AF049FBB8
:103B40000923F6E7FFF720FA0823F2E70AF044FB1F
:103B50000B23EEE700231846EBE700BF0080005080
:103B6000B0F5207F20D00ED8B0F5007F16D020D839
:103B700010B1B0F5C07F04D10F4B186FC0F3033004
:103B800018E0002016E0B0F5607F05D10A4BD3F8AD
:103B90008000C0F301100DE000200BE0064BD3F8CD
:103BA0009000C0F3046005E0034B186FC0F3802061
:103BB00000E00020013070470080005038B5054615
:103BC0000C46174B4FF400329A660020FFF7C8FFEF
:103BD00005FB00F0134BDA6902F4803241F67131D3
:103BE000D9639B6823F440136CB90F49884207D806
:103BF00000210B430B498B600AB10022CA6338BD18
:103C00004FF48011F5E7002C07DD0749884201D801
:103C10000021EEE74FF48011EBE74FF44011E8E7A5
:103C20000090005000000350005A6202430907D080
:103C3000012B10D0022B01D0094A02E0094A00E012
:103C4000002200F01F0041B102F58052012303FA67
:103C500000F010607047044AF3E702F50052F5E700
:103C600060820050688000506480005008B5802059
:103C70000AF00CFC034B984203D8034B4FF48032FC
:103C80001A6708BD005A620200A0005000B583B058
:103C900000230193B0F5807F7CD00FD9B0F5D06FB1
:103CA0007DD039D9B0F5006F4BD04FD9B0F5086F42
:103CB00067D101A90020FFF777FE62E052281ED8E5
:103CC00024285ED324382E285BD8DFE800F05E5E1F
:103CD0005E5E5A5A565A2F685A5A5A5A5A5A5A5A5D
:103CE0005A5A6D5A5A5A5A45725A5A5A5A5A5A5A1E
:103CF0005A5A5A5A5A5A5A5A5A5A5A5A5E00802886
:103D00003FD12E4B1B6F03F00703013B032B38D829
:103D1000DFE803F030272A2DB0F5A06F44D00AD990
:103D2000B0F5B06F29D0B0F5C06F2AD101A900203D
:103D3000FFF760FE25E0B0F5806F26D0B0F5906FFC
:103D40001FD101A90020FFF7FBFD1AE0B0F5E06FDD
:103D50002FD0B0F5F06F14D101A90020FFF7DAFEE3
:103D60000FE0052301930CE00323019309E00723EF
:103D7000019306E00223019303E001A90020FFF76D
:103D8000BBFD019803B05DF804FB01A90020FFF71B
:103D90008DFDF6E701A900200AF053FBF1E701A928
:103DA0000020FFF767FEECE701A90020FFF748FEBF
:103DB000E7E701A90020FFF789FEE2E70080005055
:103DC000044B4FF400225A6603F5804301229A62A5
:103DD000704700BF0090005010B504468020FFF7E8
:103DE00055FF032800F09D804E4B4FF400225A6689
:103DF00003F5405345F60E02C3F8802003F58052C8
:103E00000221916203F5005301229A62464B9B6D99
:103E100013F4803FFAD1226863681B0543EA02630A
:103E2000227B43EA0243627B43EA0233A27B43EAFA
:103E30008213E27B13433C4A1361936903F000430E
:103E4000216943EA8163616943EA0163217E43EAB0
:103E50000143617E43EA0123A17E0B439361136A10
:103E600023F00D03E269002A42D111460B43E17EA3
:103E700043EA810313432C4A1362E369002B39D1CF
:103E8000936A23F0330394F8201043EA411394F823
:103E9000211043EA011343F001039362224B9A6D10
:103EA000224B9343FAD1204B03F5805102228A62C0
:103EB0001A651D4B9B6D13F0804FFAD11A4B1A698E
:103EC00022F47002A16842EA01521A6103F580539C
:103ED0004FF000429A6194F8223013B9144B022239
:103EE0009A6294F82330ABB9114B01229A6211E027
:103EF0000821BBE70C4A936A23F0330394F820109F
:103F000043EA411394F8221043EA410394F8231042
:103F10000B43936294F824301BB1034B054AC3F85A
:103F2000802010BD0090005000C0005003000140F0
:103F300000E00050F1A7FFFF014B93F9000070472C
:103F40001320002010B443784F2B28BF4F231A466C
:103F50001C4B4FF48001596603F5B8334FF4D1512F
:103F6000596203F5805102244C6003F5005301218E
:103F70005960154B1B6913F4803FFAD1037842EA6C
:103F80000323114A5361416883681B0143EA0123FB
:103F9000017B43EA4103417B0B439360817BC37BFD
:103FA0001B0143EA4113017C43EA4103417C0B437B
:103FB0005360837C1BB113466FF4D1525A625DF893
:103FC000044B70470090005000000250014B1880D5
:103FD000704700BF12090020014B1880704700BFD6
:103FE00010090020B0F5207F48D02DD8B0F5007F13
:103FF00039D04CD810B1B0F5C07F24D110B54C1ECB
:104000000AF03DFA0AF0D3FBFFF748FC204B196F8A
:1040100021F4704141EA04311967FEF783FF1D4B1B
:10402000D3F8843013F0100FF9D11A4BD3F8841061
:10403000C1F38111C1F102010AF0AEFB00F02CF8CE
:10404000FFF714FE10BD7047B0F5607F0AD101394B
:104050000F4AD2F8803023F0300343EA0111C2F84E
:104060008010704770470139094AD2F8903023F028
:10407000F85343EA0161C2F8901070470139044ACD
:10408000136F23F4806343EA8121116770477047FF
:10409000008000500040005008B54FF4C0700AF096
:1040A000F5F9054B984205D902214FF42070FFF72E
:1040B00099FF08BD0121F8E780F0FA0208B5FEF784
:1040C00031FF0C4BD3F8843013F0100FF9D1094BAA
:1040D000D3F88410C1F38111C1F102010AF05CFB35
:1040E0000121002000F068F8FFF7D6FFFFF7BEFDC2
:1040F00008BD00BF004000504209064B53F8223073
:1041000000F01F0023FA00F080F0010000F0010031
:10411000704700BF00E100E0034AD36E23F0300394
:1041200001790B43D366704700400050F8B5044650
:10413000204BD3F8843013F0100FF9D11D4BD3F876
:104140008430C3F381139C422DD0FEF7D1FE064686
:10415000012C11D00AF03EFB0546164F07F500531F
:104160004FF000725A6620460AF044FB621E4FF47C
:10417000806393403B6706E001210AF00DFBE9E70D
:104180000C4BD3F884300B4B5B6E13F0007F05D1E2
:10419000084BD3F8843013F0200FF1D028460AF0F2
:1041A0001DFB022C00D0F8BD002130460AF0F4FAC5
:1041B000F9E700BF0040005010B50C46034650B16F
:1041C000094A127812B1094A934208D921460220BD
:1041D000FFF7ACFF10BDFEF78BFE0346F0E721466C
:1041E0000120FFF7A3FFF5E7B0140020005A620298
:1041F00010B5304B4FF000425A6603F50B2303F520
:10420000805201215160596C01F001014AF6CD3212
:104210001A6418BB9C6814F0010412D003F5005313
:1042200001229A600023244AD26A12F0010F04D1BD
:10423000224A934201D80133F5E7204A93420BD832
:1042400000241F4B01225A6011B11B4B1D4A1A64F6
:104250000BF0D9FF204610BD0724F2E70023164AD1
:10426000D26A12F0080F04D0144A934201D80133E5
:10427000F5E7124A934218D80F4B03F5005220205D
:10428000506203F5805301229A60002300E001335D
:10429000094A526A12F0200F02D1084A9342F6D915
:1042A000064A934203D80024CEE70724CCE707242C
:1042B000CAE700BF00900050004009503F420F0085
:1042C000006009503254FFFF10B51B4B4FF0004205
:1042D0005A661A4A02F5805301215960546C0C4009
:1042E0004AF6CD33136443788B400B431449CB63B8
:1042F000936823F07403827843EA0213C278C2B150
:10430000042213430D4A93600179837943EA012320
:1043100013614179C37943EA012353610078FFF7C0
:1043200067FF14B1054B074A1A640BF06CFF0120BC
:1043300010BD0022E5E700BF00900050004009508A
:10434000004000503254FFFF034B984201D0002040
:1043500070473820704700BF0000035A436813F0CD
:10436000010F19D00A230363C36C13F0500FFBD164
:10437000036C13F0030FFBD1836A8362C36C13F0E9
:10438000010FFBD100E0436B036C13F0800FFAD1F7
:1043900000F5005301225A600023C360836041F29C
:1043A00002020261C3614361836103624362C362CB
:1043B000836400F50052024951648362704700BF74
:1043C0007F370C0138B5044615460846F1B16368DD
:1043D000A36803F0E003402B23D01DD9602B24D029
:1043E000802B12D10123400105FB03F3B0FBF3F056
:1043F00020380F4B03EAC000E36C13F0010FFBD130
:10440000A062E36C13F0010FFBD138BD2046FFF72B
:104410009BFF0AF03BF8DAE72BB1202BF5D10823FC
:10442000E1E70623DFE71023DDE70423DBE700BF36
:10443000F8FF7F0070B504460D461646436823B169
:10444000E36CC3F30A03002BFAD12046FFF786FF83
:10445000236923F44C5323F003036A7B1343EA8953
:1044600013432A8A13432361A36823F0804323F074
:10447000E2032A7B13432A7E13436A691343A36032
:10448000AB681BB9A36843F00043A360EA69002A44
:104490005ED0A368127A43EA8253A360A368EA69F4
:1044A000927A43EA4243A360A368EA69928802F4DD
:1044B000C0421343A360A368EA69527843EA8203C7
:1044C000A360A368EA69527B43EAC203A360A368BE
:1044D000EA69927B43EA0213A360A368EA699278CF
:1044E00043EA8223A360EA699179D3795B0243EAC4
:1044F0008123E360EB691B78012B01D0032B03D1EF
:10450000E36843F00403E360EB691B78023BDBB232
:10451000012B35D9274B0122C3F8C020EB695A7A09
:1045200004F580531A62EB695B7A1BB1E36843F4CC
:104530000063E360EB69DB7A53B1E36843F4004363
:10454000E360EB691B7B03F00F031B4AC2F880306A
:1045500036B196F82030C3B104F5805301229A6138
:10456000052120460AF047F9AA68EAB929782046C9
:104570000AF041F9236CDB4313F4405FFAD170BDBC
:104580000E4B0122C3F8C020C8E7636923F009037A
:1045900096F82220134396F82120134343F0010399
:1045A00004F580525361DBE769682046FFF70AFF94
:1045B000DCE700BF00E403500090035000D4035038
:1045C0002DE9F84F0C4615461E469DF828809DF8AB
:1045D0002C70072A44D84FEA8209032303FA09FA08
:1045E00000FA09F90AF0F6F8384AD2F8001489EA14
:1045F000010303EA0A034B40C2F800340AF0EEF864
:104600004FF0000A072D43D8A9004FF0030909FA1B
:1046100001F904F003048C400AF0DCF82B4BD3F8CA
:104620000824544004EA09045440C3F808440AF03A
:10463000D5F8002E44D0264A0123AB401360B8F1D0
:10464000000F3FD0234A1360012202FA05F5224AE7
:10465000C2F82054C7B3A2F6DC321360BDE8F88F6D
:10466000A2F1080A4FEA8A09032303FA09FB00FAB8
:1046700009F90AF0AFF8154AD2F8041489EA0103DF
:1046800003EA0B034B40C2F804340AF0A7F8B9E779
:104690004FEA8A0A4FF0030909FA0AF904F0030401
:1046A00004FA0AF40AF096F8084BD3F80C245440A4
:1046B00004EA09045440C3F80C440AF08FF8B8E740
:1046C000064AB9E7064ABEE7064AC6E700C00350F5
:1046D00010D4035014D4035000E0035010E40350EE
:1046E00014E4035024E403502DE9F04704460E4639
:1046F0001F46904662B1D3B301228A4000EB4003CB
:104700001B0103F1A04303F5703341F210015A502D
:10471000072E39D804EB44031B01DFF8C4909944F9
:10472000B3004FF00F0A0AFA03FA08FA03F50AF089
:1047300051F8D9F8002085EA020303EA0A0353403E
:10474000C9F800300AF04AF8B8F1000F0DD1C7B32C
:10475000012101FA06F604EB4404240104F1A0440B
:1047600004F5703441F21003E650BDE8F0870122F1
:104770008A4000EB40031B0103F1A04303F57033B3
:1047800042F210015A50C3E704EB44031B01DFF867
:1047900054909944A6F1080292004FF00F0A0AFAC9
:1047A00002FA08FA02F50AF015F8D9F8003085EA9D
:1047B000030202EA0A025A40C9F800200AF00EF881
:1047C000C2E7012101FA06F604EB4404240104F1D6
:1047D000A04404F5703442F21003E650C5E700BF70
:1047E00004C003500CC0035010B50C4B4FF4001222
:1047F000C3F88020BFF34F8FBFF36F8F084B0024A7
:104800005C65FF229A625C6021462020FFF70EFA69
:1048100021462120FFF70AFA10BD00BF00E100E0A9
:104820000000045029B9044A012303FA00F0106083
:104830007047024AF8E700BF40100450402004507F
:1048400010B5044601212020FFF7F0F901212120B5
:10485000FFF7ECF9114B01225A60227812069A6098
:104860006178A27842EA01429A61FF229A620022AC
:104870009A631A644FF000425A6503F500534FF0F3
:10488000FF321A65064A4FF40011C2F88011E3782E
:104890001B01DBB282F81533116010BD000004501B
:1048A00000E100E070B50C46C3B201259D40204EEA
:1048B00006F500531D65096803F5005343F8201001
:1048C000637B00EB400106EB01110B6694F80AC014
:1048D000E37A1B0543EA0C4394F80CC043EA4C53BB
:1048E000CB6522F003020A6709F07BFF736D2B434F
:1048F0007365237A13B1336C2B433364637A1BB132
:104900000B4A936B2B4393632379A27942EA0342C8
:10491000074B03F500518A616679E27942EA064263
:1049200003F58054A2614D639D6409F060FF70BD82
:104930000000045010B5C0B20124844009F051FFBA
:10494000044B5A6D22EA04025A659C6209F04FFF3B
:1049500010BD00BF0000045010B5C0B20124844057
:1049600009F03FFF084BDB6A234206D1064B5B6B25
:1049700034EA030306D0002400E0002409F037FFE6
:10498000204610BD0124F9E7000004500B784A7856
:1049900043EA8203CA7843EA42130A7943EA0213DC
:1049A00000EB4002920002F1B04213630B78012B3E
:1049B00000D070478A78024B43F82020F9E700BF07
:1049C000E88003504FF0B0435B680BB9002837D044
:1049D0004FF0B0435B6843B14FF0B0435B6823B125
:1049E0004FF0B0439B6A002BF6D180B1154B0122EA
:1049F0005A604FF0B0435B6823B14FF0B0439B6AFD
:104A0000002BF6D14FF0B0430122DA6070474FF02F
:104A1000B0435B6823B14FF0B0439B6A002BF6D1E3
:104A20004FF0B0430222DA604FF0B0435B6823B12D
:104A30004FF0B0439B6A002BF6D1034B01225A6022
:104A4000704700BF00100058002000584FF0B043DE
:104A50005B6843B14FF0B0435B6823B14FF0B043A4
:104A60009B6A002BF6D1154B01225A604378E3B1C3
:104A700013468278DAB102221343C278CAB1042203
:104A80001343027943EA0213427943EAC2034FF027
:104A9000B042936002F5805201235360037853B112
:104AA00001224FF0B043DA6070470023E1E70022B3
:104AB000E2E70022E4E70222F3E700BF002000580B
:104AC000074B4FF480325A6603F5E6235B69C3F364
:104AD0008512827003F03F0242701B0B0370704717
:104AE00000900050014B986CD96C70470080E00F2B
:104AF000024B1868C0F30740704700BF0080E00F0A
:104B00000A4B984207D00A4B984209D0C36D43F034
:104B10008003C3657047A3F51033C3F88C11F5E724
:104B2000A3F52033C3F89C11F0E700BF00C0055087
:104B30000000065000F5805301225A6040F6AA6337
:104B4000436100238360C36541F20502C2600361D3
:104B5000C361C36400F500520C49916483650C4B3A
:104B6000984203D003F58043984201D100230365A6
:104B7000074B984203D003F58043984201D10023AC
:104B8000436500F50050012343607047FFFF0100BB
:104B900000C00550411100F01F00012303FA00F08E
:104BA000034A52F82130034342F82130704700BFD6
:104BB000C0140020044B1B681BB1044B0360002091
:104BC00070470120704700BFD01C0020B4140020A3
:104BD00010B4124C2468B4B100EB020C104C2488C1
:104BE000A44512DC01EB030C0D4C6488A4450EDCDB
:104BF0007AB183B10A4CA080E180228163810020D8
:104C00005DF8044B70470120FAE70420F8E7042020
:104C1000F6E70520F4E70520F2E700BFD01C0020EE
:104C2000B41400202DE9F04F83B09B46474B1B681E
:104C3000002B00F084800246454BDD88B3F80AA0C3
:104C4000AA441FFA8AFA0D44ADB20D9E14E05F46E5
:104C500028E0C70800F00701012202FA01F1DA5D3D
:104C60000A43DA55013080B2A042F2D34046FFF742
:104C700091FF0135ADB20022002E63D0554560D2C0
:104C8000334B1C89A41AB44228BF3446361B98887B
:104C9000104480B2A8462F4B03EB0513BBF1000F65
:104CA000D5D0FF27072C12D80444002FDCD10BE00D
:104CB000C70800F00701012202FA01F1DA5D22EAD9
:104CC0000102DA55013080B2A042F1D3CEE7C1082B
:104CD00003EBD00910F0070013D001228240D2B2BA
:104CE00002F1FF3C13F801E052423A4052B20CEAA2
:104CF0000E0C42EA0C025A5409F101092044A0F1B9
:104D00000804E308019310D1002CAFD0012303FA6B
:104D100004F4E4B2621E99F9003064421C4064B2AB
:104D20001740274389F80070A0E71A4639464846DD
:104D30000BF074FE04F00704019B9944E4E701269C
:104D400000E00426304603B0BDE8F08FD01C002000
:104D5000B4140020D014002010B582B0134B1B688F
:104D60001BB10024204602B010BDFDF7AFFF044682
:104D700008B10124F6E7FDF79DFF0C4B186098B1D0
:104D800002880B4B1A804188598000209880D88077
:104D90001A81598101FB02F20192009003460246FA
:104DA0000146FFF73FFFDDE70124DBE7D01C0020D1
:104DB000B414002070B51C4B1C68012600231A4651
:104DC0000FE00BB9013216E0184901EB0211FDF7B3
:104DD00013FF034618BB6A1C0DE0134951F8264027
:104DE0000136D5181249086841888D4209D214F05D
:104DF000010FE6D00133D11811F01F0FEDD0640878
:104E0000EFE72BB1094901EB0211FDF7F5FE40B9BF
:104E1000054B0020186058609860D86070BD07206E
:104E2000FCE70720FAE700BFC0140020D0140020E0
:104E3000D01C002030B587B020B304460023436067
:104E40006FF07F43836005A8FFF7B4FE054610B1FD
:104E5000284607B030BD059B2360002201920292D4
:104E60001A88013A03925B88013B049301A920460A
:104E700009F0ADFD05460028EAD10349204609F0B6
:104E800045FFE5E70525E3E76C20010038B504465A
:104E90000BF0CCF9054DA446BCE80F000FC59CE80B
:104EA000030085E80300002038BD00BFD41C0020AB
:104EB00047F6FF739A427AD001297AD870B53F4BF2
:104EC00003EBC10090F802E0704613F83130012B7B
:104ED00024D03A4B03EBC1035C68002C6BD0B4F9CF
:104EE0000030934204DBB4F90230934200DC1346F5
:104EF000A288FF2A2FD000252826C8229C46D21A35
:104F000092FBF6F22A4412B22C4B03EBC1014D780E
:104F1000954201DD002A33DA6A1E31E0274B03EBAC
:104F2000C103DB78A3EB0E0300249C4210D2A3EB59
:104F3000040CA3EB5C0C214800EBC100406830F985
:104F40001C00904201DC6446EFE70CF1FF33ECE714
:104F50007344D8B22AE0B4F90620B4F908600125F8
:104F6000CCE75C331649A1FB03139B09013212B253
:104F7000164695420FDD04EBC201898899420AD397
:104F800004EBC2018B68B1F9061001FB0C33002B56
:104F9000E7DA0023E5E7721E04EBC20292889A4228
:104FA00000D31A46724500D31046C0B270BDFF2030
:104FB0007047002070470020F8E700BFD41C002095
:104FC000D34D621001296CD8384B13F83130012BC6
:104FD0002CD010B5354B03EBC1035C68002C62D0BC
:104FE00004F1040C314B03EBC1039B78934235D29F
:104FF0002E4B03EBC103DB78934232D92B4B03EBEF
:10500000C10191F801E00EF1FF3E5FFA8EFEA38828
:10501000FF2B29D00023734528D2591C3CF83100BE
:1050200091B2884222D30133DBB2F4E71F4B03EB8A
:10503000C103DB78934200D21A461C4800EBC10042
:105040008078121AD2B21B1A9A4200DD0022174B46
:1050500003EBC1014B6833F912007047B4F9020049
:1050600010BDB4F90000FBE70123D4E74FF47A71D7
:1050700001FB02F20CEBC30CDCF80430D31ABCF9D0
:10508000022002EBD27103EB610393FBF2F3B4F95C
:1050900000009842E4DBB4F902009842E0DC18B268
:1050A000DEE7034870470248DAE700BFD41C00205F
:1050B0000080FFFF08B50348FFF7E8FE01200BF072
:1050C000D8F808BD9C23010030B583B004460BF02E
:1050D000D2F808B103B030BD694620460BF0A8F8FD
:1050E00000B1FEE79DF800300C4A12789342F1D0EF
:1050F000032B06D16425094920460BF086F828B118
:10510000FEE7204602F052FA0546F4E7294620461B
:105110000BF090F80028DDD0FEE700BF70080020FB
:1051200000B587B000230193029303930493059382
:1051300002238DF804300A4A02928DF80D300422C1
:105140008DF80E208DF8133005238DF814300DEBFB
:1051500002014FF0FF300BF074F907B05DF804FB6B
:10516000006A18002D2822D8DFE800F0172121213D
:10517000212121212121212121212121212121211F
:10518000212121212121212121211B212123212113
:1051900021211D212121211F21190748704707487E
:1051A00070470748704707487047074870470748E7
:1051B00070470748704700BFC02501005824010010
:1051C0006C24010094240100AC240100202401007F
:1051D0003024010010B504464FF42F7200210BF06B
:1051E0001DFC8023C4F88C30054BC4F884300123A7
:1051F00084F8883004F19C0008F0F1FF10BD00BF76
:10520000CC24010010B503460846D3F8A0202AB1EB
:10521000D3F8A41090470024204610BD18460AF089
:1052200004F904460028F7D0FFF79CFF0146024826
:105230000AF063FAF0E700BF080C0100F8B590F837
:10524000806016B100263046F8BD054609F06DFEB7
:105250000028F8D1012385F8803095F888300BB903
:10526000374618E0002385F88830D5F884101C48AC
:105270000AF043FAF4E70AF024FA044614E0284658
:1052800009F050FEE1B2284600F0D8FB0646B4F122
:10529000FF3F0ED06EB9D5F8B442B4F1FF3FEAD06B
:1052A0004FF0FF33C5F8B432B4F1FF3FE7D1012727
:1052B000EDE726B9002385F880303E46C3E728464F
:1052C00009F035FE95F88830002BF3D0D5F884101E
:1052D00003480AF012FA002385F88830EAE700BF95
:1052E000D0240100F8B506460D4617460B78302B42
:1052F0000DD04FF0000C15F80C30002B4AD0374C75
:105300001B5D13F0040F66D00CF1010CF3E74B7832
:10531000782B04D0582B0CD04FF0000CEBE7022276
:10532000AB5C43B12D495B5C13F0440F51D00132AB
:10533000F6E70222F4E7724206F0030302F00302EA
:1053400058BF5342032B16D128460BF079FB023885
:10535000013608D4B310B0EBA60F06D09842ACBF0C
:105360000020012038E00336F4E7A87837288CBF06
:105370000020012030E028460BF062FB831E3246FD
:10538000002E05DBB3EBA20FD4BF0120002023E0E9
:10539000F21CF7E70A220021284608F063F90246CA
:1053A0000C46202E11D02FB151EA000302D0421E2C
:1053B00061F100040123B340013B1340002C08BFFE
:1053C00093420CBF0120002006E0B1FA81F04009B1
:1053D00002E0002000E00020F8BD00BFC57201001F
:1053E00003787B2B1CD14FF0000C0123C25C7D2A7B
:1053F0000ED00E49515C11F0440F03D00CF1010C9A
:105400000133F3E7202A01D0002070470133EDE794
:105410001844437833B91CF0010F05D101207047BF
:10542000002070470020704700207047C5720100BF
:10543000212816D821283AD8DFE800F0113B191BA3
:105440001D1F212339393939393939392527292B74
:105450002D2F3133393939393939393935371848F8
:105460007047FE2827D0FF2827D1164870471648D6
:1054700070471648704716487047164870471648D8
:1054800070471648704716487047164870471648C8
:1054900070471648704716487047164870471648B8
:1054A00070471648704716487047164870471648A8
:1054B000704716487047164870471348704700BF3A
:1054C0008025010090250100E4240100EC24010066
:1054D000F4240100FC240100042501000C25010036
:1054E000102501001C25010028250100342501009C
:1054F0003C250100482501005425010060250100DC
:105500006825010074250100D4240100DC24010079
:105510008825010070B506460D460BF091FA044649
:1055200030460AF0EAF803E003480AF0E6F80134EE
:10553000AC42F9D370BD00BFB40C01002DE9F84FA7
:10554000044602213248FFF7E5FF1E212068FFF7DD
:10555000E1FF636858680AF0D0F82E480AF0CDF8E9
:1055600063681A7BFD2A51D803F10C09D3F808A00F
:1055700050460BF065FA80464FF0FF34002510E0EE
:105580002B200AF0AEF836E00AF0ABF801341AF836
:1055900004001F2801D04445F6DB1E480AF0ADF890
:1055A0000135AB4619F80560FF2E2FD03046FFF7C6
:1055B0003FFF0746B8F1000F00DD0134202EEFD089
:1055C000134E02213046FFF7A5FF1E213046FFF79C
:1055D000A1FF11480AF091F8104938460BF026FA5D
:1055E00000B90F4F39460F480AF087F8CB449BF8B3
:1055F0000130202BC4D00C480AF07FF8B8F1000F1E
:10560000CBDD1AF804301F2BC7D0C0E7BDE8F88FF8
:10561000C02501005C1C01009825010074250100D3
:1056200094250100D02401009C2501002DE9F04FB4
:1056300093B08146049105921C4601931C9E0BF089
:10564000FFF906900023236033600AAA09A948469F
:105650000AF07BF8002840F0BC800A980BF0F0F9C3
:105660002060D9F89C30029300231C4603939A468D
:105670009FE000242AE0013428E0099B013B5345C8
:105680004ED00F6858460BF0DBF933680344013302
:10569000336001E001333360336819F80320002AD6
:1056A000F8D00AF1010A009C10E0039B0133039338
:1056B0004246DDF814804146049D284608F0C7FDA7
:1056C000474A4146284608F0C2FD013404EB440332
:1056D00007EB830557F82330002B33D0099B534544
:1056E00030DB2B7A002BC6D1D9F894203368D21A3C
:1056F000019B1A6012AB03EB8A0353F820BCD5F868
:105700000080414658460BF0A3F900900028DCD1F8
:1057100040460BF095F9844669680A7BFE2AACD0B6
:10572000D9F8943030681B1A654663450DDC04983F
:105730000BF086F905447B2DB7D92A4A05990498C0
:1057400008F085FD4B46069A28E0FE2ABDD1099B4C
:10575000013B5345B9D10D680794009C039FDDF8C8
:105760001080DDF814B004EB440355F823205AB13F
:105770005946404608F06BFD194A5946404608F024
:1057800066FD01370134EEE7079C0397069B336003
:105790000023019A1360D5E70133013A002A05DDA1
:1057A00019780029F8D120211970F5E7029B1B68B0
:1057B0000293029B7BB1029B9F68002FF6D019F8E1
:1057C0000430202B7FF455AF33680133336001344C
:1057D000F5E700230393039813B0BDE8F08F00BFF3
:1057E000B40C0100A02501002DE9F04786B0044665
:1057F0000F4616461D46DDF83890DDF83C80002344
:105800008DF817302B6089F8003088F800302B684D
:1058100052F82310164809F082FD40B92B68013375
:105820002B604FF0010AD4F89C40002003E04FF0B9
:10583000000AF8E7246894B1A0680028FAD0CDF8EF
:105840000C80CDF80890019500963B460DF11702AB
:10585000002109F068FD9DF81730002BEAD0BAF15D
:10586000000F02D0012388F8003006B0BDE8F087B1
:10587000A825010070B5ADF5447D04460021A49132
:105880007C22A5A80BF0CAF8A3AB0093A2AB8022A0
:10589000A4A92046FFF7CAFE012804D0012840DC55
:1058A0000DF5447D70BDA4A80BF0CAF80546A29979
:1058B000431AA39A0A442244A4A8014404E011F81C
:1058C000010B02F8010B013B002BF8DC00231370E5
:1058D000D4F890600AE0D4F89010204609F049FE10
:1058E000D4F890300133C4F890300136A29AA39BCB
:1058F0001344B342EFDCAD1AD4F894302B44C4F80F
:105900009430D4F890302B44C4F89030A4AB9C1859
:1059100004E014F8010B09F0E4FE013D002DF8DC71
:10592000BEE78022002102A80BF078F84FF4007245
:10593000002122A80BF072F80125002300E00133BA
:1059400003F544726A4412F8802C3AB1202AF6D149
:105950005A1C22A941F825200135F0E722AA42F875
:105960002530A4A80BF06CF8002115E0013222AB21
:1059700053F82230834209D00B4403F544736B443F
:1059800013F8803C6345F1D0002300E0012363B1AC
:1059900002AB03F801C001318D4209DB01F544730C
:1059A0006B4413F880CC0022E1E702AB00225A548A
:1059B000D4F890500AE0D4F89010204609F0D9FDB0
:1059C000D4F890300133C4F890300135A29BAB423B
:1059D000F1DC2346174AA4A9174809F08EFE02A855
:1059E0000BF02EF8A29AA39B1344E11802AB9D186A
:1059F000821A0EE015F8013B01F8013BD4F8903013
:105A00000133C4F89030D4F894300133C4F89430A2
:105A1000013A002AEEDC00230B70A29C02AB1D1998
:105A2000041B04E015F8010B09F05BFE013C002C9F
:105A3000F8DC35E7CC240100B02501002DE9F04168
:105A400004460D46D0F89060D0F8947090F89830E5
:105A5000012B0AD0012B0ED9022B00F0BF80032BA3
:105A600000F0CB800020BDE8F0810A29F2D10020AF
:105A700084F89800F7E71B2D27D00D2D2AD000239E
:105A800084F89830082D29D07F2D63D00D2D00F09B
:105A900081800A2D7ED0092D00F08980D4F88C30C9
:105AA000013BBB4240F3DC80BE42C0F28580A5557D
:105AB0000136C4F89060D4F894300133C4F89430BF
:105AC000284609F00EFE0020CDE7022384F8983026
:105AD0000020C8E7012384F89830D3E7002E01DDC9
