S02500007261696C5F736F635F73696D706C655F7472785F6175746F5F61636B5F322E733337A6
S3150800000000080020711C00084BEF00084BEF0008A1
S31508000010C70601084BEF00084BEF00084BEF000836
S315080000204BEF00084BEF00084BEF00084BEF0008BA
S315080000304BEF00084BEF00084BEF00084BEF0008AA
S315080000404BEF00084BEF00084BEF00084BEF00089A
S315080000504BEF00084BEF00084BEF00084BEF00088A
S315080000604BEF00084BEF00084BEF0008F5150008AA
S31508000070E51500084BEF00084BEF00084BEF0008AA
S315080000804BEF00084BEF00084BEF00084BEF00085A
S315080000904BEF0008852600084BEF00084BEF0008D9
S315080000A04BEF00081D280008F52700084BEF00084D
S315080000B04BEF000859C9000875D30008A5150108B3
S315080000C0A115010841CB0008B1150108A9150108B9
S315080000D04DD30008AD150108B5D3000819D400089A
S315080000E04BEF00084BEF00084BEF00084BEF0008FA
S315080000F0A50101084BEF00084BEF00084BEF00087D
S315080001004BEF00084BEF00084BEF00084BEF0008D9
S315080001104BEF00084BEF00084BEF00084BEF0008C9
S315080001204BEF00084BEF00084BEF00084BEF0008B9
S315080001304BEF00084BEF00084BEF00084BEF0008A9
S315080001404BEF00084BEF00084BEF0008F7070108D4
S31508000150F5B800084BEF0008091301080F1301084A
S315080001604BEF00084BEF00084BEF00084BEF000879
S3150800017030B58BB0002306930793089309938A4BEF
S3150800018006938A4906A807F005F9894B186018B33B
S315080001900023059305A910F0A9FE0546002836D0C8
S315080001A0844C8549206810F050F80EF04EFE0EF08B
S315080001B04DFE824B00937623814A8249206810F0CF
S315080001C044F8814A8149206810F03FF82A46804958
S315080001D0206810F03AF8FEE7764C7749206810F068
S315080001E034F80EF032FE0EF031FE744B00936B239A
S315080001F0734A7449206810F028F8764A73492068CB
S3150800020010F023F87449206810F01FF8FEE7684CD0
S31508000210724A734B1968206807F09CFB0021206816
S315080002200FF0EAFA0546D8B1624C6349206810F027
S315080002300CF80EF00AFE0EF009FE604B00938B23B5
S315080002405F4A6049206810F000F85F4A5F492068F5
S315080002500FF0FBFF2A46634920680FF0F6FFFEE71A
S315080002604FF00111524B186810F0E0FD0546D8B161
S31508000270504C514920680FF0E8FF0EF0E6FD0EF0ED
S31508000280E5FD4E4B009397234D4A4E4920680FF0E3
S31508000290DCFF4D4A4D4920680FF0D7FF2A465249E0
S315080002A020680FF0D2FFFEE73DA3D3E90023CDE98E
S315080002B000234FF0FF324FF0FF333D49086810F036
S315080002C0E2FC0546D8B13B4C3B4920680FF0BDFF20
S315080002D00EF0BBFD0EF0BAFD384B0093A023384A4A
S315080002E0384920680FF0B1FF374A384920680FF0BF
S315080002F0ACFF2A463D4920680FF0A7FFFEE73C4BB6
S315080003001B88ADF81030ADF80C3004A9284B1868D6
S3150800031010F0A1FC0546D8B1264C274920680FF0F5
S3150800032094FF0EF092FD0EF091FD244B0093B0233E
S31508000330234A244920680FF088FF234A2349206866
S315080003400FF083FF2A462B4920680FF07EFFFEE751
S3150800035003A9174B186810F094FC054608B90BB0AA
S3150800036030BD144C144920680FF06FFF0EF06DFD78
S315080003700EF06CFD114B0093B523114A1149206804
S315080003800FF063FF104A114920680FF05EFF2A46F6
S31508000390194920680FF059FFFEE700BFAFF3008048
S315080003A018AC0155E20300003BEE00081DEE0008FC
S315080003B03C08002014110020A0190108F4250108A2
S315080003C034240108EC1A0108A42401082C1B01088E
S315080003D0D8240108542401087C24010827EE0008C3
S315080003E018080020042501083C2501086425010891
S315080003F0F025010890250108C02501080000000025
S315080004002DE9F04F2DED028B91B082460C469346AE
S315080004101D46DDE91C23104619460DF0D7FC0028B9
S3150800042000F007814FF0FF32B14BDDE91C010DF0FA
S31508000430F5FC002840F0FD804FF0FF326FF4801382
S31508000440DDE91C010DF0CCFC002840F0F28000220A
S315080004500023DDE91C010DF0C3FC002840F0FE80F6
S315080004609DED1C7B8DED067B209B13F480630F931B
S3150800047001D106231E93DDE906010246C1F30A509F
S31508000480C1F31303904643F07F5949F44019A0F28B
S31508000490FF300DF0C9F984A3D3E900230DF02EFA35
S315080004A083A3D3E900230DF073F806460F4600220E
S315080004B0904B404649460DF069F87FA3D3E90023DF
S315080004C00DF01CFA02460B46304639460DF060F828
S315080004D00DF0AEFC06460DF0A7F98046894678A3CE
S315080004E0D3E900230DF00AFA0022834B0DF050F8E9
S315080004F00DF09EFC074674A3D3E9002340464946FF
S315080005000DF0FCF98046894638460DF08DF970A342
S31508000510D3E900230DF0F2F902460B464046494658
S315080005200DF034F88046894602460B460DF0E6F98A
S31508000530CDE90A0107F2FF3700210022CDE90812AA
S315080005403B0509930023089342464B4640464946D5
S315080005500DF01EF8CDE90C0142464B4600204FF03F
S3150800056080410DF013F8804689460022634BDDE989
S315080005700A010DF0EDFA0022614B0DF009F802466A
S315080005800B46DDE90A010DF0E3FA00225D4B0CF09B
S31508000590FFFF02460B46DDE90A010DF0D9FA0246CD
S315080005A00B46404649460CF0F3FF02460B46DDE98A
S315080005B00C010DF0CDFA0022534B0CF0E9FFDDE9F2
S315080005C008230DF09BF98046894649EC188BDDE92E
S315080005D006230DF023FC40B1013E0022484B40465D
S315080005E049460DF0B5FA41EC180B06F16303C62B24
S315080005F03FD80427209B13F4006F44D036A3D3E9D1
S315080006000023DDE90689404649460DF0FDFB002832
S315080006103FD033A3D3E90023404649460DF0E0FB1B
S31508000620002836D01E9BB34225DD9E1B731E1E93E3
S3150800063023E0209B04931F9B03931E9B02939DED2F
S315080006401C7B8DED007B2B465A462146504600F012
S31508000650CFF811B0BDEC028BBDE8F08F9FED227B81
S315080006608DED067B1C9B06931D9B03F100430793A8
S31508000670FAE60527BEE700231E93209B43F4806312
S31508000680209300273E461F9B9F423FD2A3EB0708B5
S315080006903EE01E9B002BF6D00F9B002BF3D01E9B33
S315080006A0013B1E93EFE700BFFB799F501344D33FEE
S315080006B0B3C8608B288AC63F61436F63A787D23F5A
S315080006C071A379094F930A401655B5BBB16B024021
S315080006D0EF39FAFE422EE63F2D431CEBE2361A3F6F
S315080006E00000000080842E41000000000000000089
S315080006F0FFFFEF7F0000F83F0000E03F00002C40BE
S3150800070000002440000018400000F03F4FF00008A9
S31508000710209B13F0020902D00FB14FF000083EB13A
S3150800072053EC182BDDE906010DF012FACDE90601A6
S3150800073000220023DDE91C010DF052FB00283DD103
S31508000740209B23F400630493CDF80C801E9B029330
S315080007509DED067B8DED007B2B465A46214650467D
S3150800076000F046F8002F3FF474AF209B13F0200FDB
S315080007702CD04FF0450C00F101082B4602462146C5
S315080007806046D04786EAE673A3EBE6730522059230
S31508000790013F0497002203920A220292F00F019069
S315080007A000932B4642462146504610F052F9B9F1BD
S315080007B0000F3FF44EAF02461F9F10E0DDE9060129
S315080007C0024601F10043CDE90623B9E74FF0650C6F
S315080007D0D1E7561C2B4621462020D0473246A2EBAD
S315080007E00B03BB42F5D3104633E700BF00000000F9
S315080007F02DE9F04F2DED028B95B007900A919246A0
S315080008009B46DDE92089229D42464B46404649469D
S315080008100DF0DCFA002840D04FF0FF326FF4801359
S31508000820404649460DF0DCFA002845D14FF0FF3224
S315080008309F4B404649460DF0F1FA00284BD198A344
S31508000840D3E90023404649460DF0E8FA00285AD174
S3150800085095A3D3E90023404649460DF0C1FA00287E
S3150800086051D100220023404649460DF0B9FA002826
S3150800087057D100230B93249B13F4806F5CD000247C
S315080008801F2C5BD8092D59D904F150036B4430222B
S3150800089003F8202C013D0134F2E7249B0393239BA4
S315080008A0029303230193834B00935B4652460A99AE
S315080008B007980FF0F3FF2CE1249B0393239B0293E5
S315080008C0042301937C4B00935B4652460A9907988A
S315080008D00FF0E4FF1DE1249B13F004030FD0774AC1
S315080008E07BB10423249903912399029101930092E1
S315080008F05B4652460A9907980FF0D0FF09E1704AFD
S31508000900EEE70323EEE7249B0493239B03930295C8
S31508000910CDE900895B4652460A990798FFF770FDAC
S31508000920F7E042464B46002000210CF02FFE804699
S31508000930894601230B939EE70625A0E740464946CC
S315080009400DF076FA06460CF06FFF02460B46404657
S3150800095049460CF01BFE5B4B03EBC50393ED008B7E
S3150800096053EC182B0CF0CAFF02460B46CDE90823B8
S315080009700DF086FA07460CF047FF02460B46DDE9FE
S3150800098008010CF003FE02460B46CDE908230022B7
S315080009904D4B0DF043FA50B3013738460CF034FF8F
S315080009A002460B4651EC180B0DF024FA08B1013635
S315080009B0002755BB30460CF037FF02460B4640462B
S315080009C049460CF0E3FD0746884600223E4B0DF0EB
S315080009D007FA38B100223C4B384641460DF01EFA5C
S315080009E0002842D016F0010F3FD001363DE0002224
S315080009F0354BDDE908010DF0F3F90028D9D117B117
S31508000A0017F0010FD5D00137D3E71F2C17D8013DB2
S31508000A102E4BA3FB0723DB08194603EB8303A7EB3F
S31508000A204303621C303304F150000DEB000404F854
S31508000A30203C092F02D90F461446E6E714461F2C18
S31508000A400AD86B1E45B104F150026A44302102F8F7
S31508000A50201C1D460134F2E71F2C06D804F150036A
S31508000A606B442E2203F8202C01341F2C33D8184A45
S31508000A7082FB0632F317C3EBA2031A4603EB830382
S31508000A80A6EB4303611C303304F150000DEB000460
S31508000A9004F8203C1646EAB10C46E6E7AFF30080B8
S31508000AA00000000065CDCD410000000065CDCDC138
S31508000AB0FFFFEF7F3C42010840420108344201082B
S31508000AC030420108484201080000E03FCDCCCCCCBA
S31508000AD0676666660C46249B03F00303012B1DD04C
S31508000AE01F2C09D80B9B002B35D004F150036B44FF
S31508000AF02D2203F8202C0134249B0393239B029375
S31508000B0001940CAB00935B4652460A9907980FF07E
S31508000B10C5FE15B0BDEC028BBDE8F08F239BB3B1C3
S31508000B200B9B1BB9249B13F00C0F12D0239B013B84
S31508000B302393194606E004F150036B44302203F868
S31508000B40202C01348C42CBD21F2CF4D9C8E7239928
S31508000B50F8E72399F6E7249B13F0040F07D004F16E
S31508000B6050036B442B2203F8202C0134C4E7249B42
S31508000B7013F0080FC0D004F150036B44202203F889
S31508000B80202C0134B8E700BF10B5054C237833B9DB
S31508000B90044B13B1044800E000BF0123237010BDC5
S31508000BA0780B0020000000003882010808B5034BC6
S31508000BB01BB10349034800E000BF08BD0000000060
S31508000BC07C0B002038820108A3F5803A704700BFE5
S31508000BD0174B002B08BF134B9D46FFF7F5FF002167
S31508000BE08B460F461348144A121A10F00CFD0E4B8A
S31508000BF0002B00D098470D4B002B00D098470020BB
S31508000C00002104000D000D48002802D00C4800E021
S31508000C1000BF0DF0F9FA2000290000F0C7FB0DF01F
S31508000C20DFFA00BF00000800000000000000000016
S31508000C300008002050090020F418002000000000D9
S31508000C400000000010B5032000F03CFD40B9032069
S31508000C5000F038FD70B9032000F034FDC8B910BDA6
S31508000C600EF0F3F80EF0F2F81249134B18680FF06D
S31508000C70ECFAECE70EF0E9F80EF0E8F80E4B1C6813
S31508000C8003F034FA02460B460C4920460FF0DDFA0B
S31508000C90E1E70EF0DAF80EF0D9F8074B1868084BBA
S31508000CA01B7823B1074A08490FF0CFFAD7E7074A56
S31508000CB0F9E700BFC417010814110020CC17010872
S31508000CC038090020C0170108E4170108BC170108F5
S31508000CD008B5094B01221A70032000F0F3FC00B98D
S31508000CE008BD0EF0B2F80EF0B1F80449044B1868C6
S31508000CF00FF0ABFAF4E700BFBD180020F81701089B
S31508000D001411002010B58368C26853F822301B7886
S31508000D1043B90C4B00221A700B4C032000F0D2FC8E
S31508000D2028B910BD074B01221A70084CF5E70EF0DA
S31508000D308CF80EF08BF822460549064B18680FF01A
S31508000D4084FAEEE738090020BC170108C017010825
S31508000D50101801081411002010B50446032000F0ED
S31508000D60B1FC00B910BD0EF070F80EF06FF822460F
S31508000D700249034B18680FF068FAF3E7F4170108FD
S31508000D801411002030B58FB0002000F075FC044621
S31508000D9000F0F6F934480EF088F934480EF085F973
S31508000DA000230793089309930A930B930C930D93C7
S31508000DB0642309930793C0230A93B623089307A9C4
S31508000DC0204606F0AFFBF0B9294A05AB92E80300C6
S31508000DD083E80300274B0DF1040C0FCB8CE80F00BA
S31508000DE010226146204610F07BF80546E0B905A9B1
S31508000DF0204610F065F8054630BB1F48FFF7ACFFE4
S31508000E0020460FB030BD0546022000F05BFC0028E6
S31508000E10DAD00EF01AF80EF019F82A461749184BC8
S31508000E2018680FF012FACFE7022000F04BFC0028F2
S31508000E30DDD00EF00AF80EF009F82A461149104BD3
S31508000E4018680FF002FAD2E7022000F03BFC0028EF
S31508000E50D3D00DF0FAFF0DF0F9FF2A460A49084BE0
S31508000E6018680FF0F2F9C8E73C260108542601086D
S31508000E70D4180108C0180108A41801082818010880
S31508000E8014110020501801087C18010800B583B019
S31508000E90284A1368526828490B4211D103F0AA431D
S31508000EA002F022010B431DD112F4007F2CD1234BF3
S31508000EB001221A70224B00221A7003B05DF804FB57
S31508000EC0012000F0FFFB0028F1D00DF0BEFF0DF069
S31508000ED0BDFF184BD3E900231A491B4800680FF0D9
S31508000EE0B4F9E4E7012000F0EDFB0028DFD00DF0AF
S31508000EF0ACFF0DF0ABFF0F4BD3E9002313491248A3
S31508000F0000680FF0A2F9D2E7022000F0DBFB002808
S31508000F10CDD00DF09AFF0DF099FF0D4B1B7800937D
S31508000F20044BD3E900230B49074800680FF08DF9F5
S31508000F30BDE700BF50090020088D010039090020CF
S31508000F40BC180020DC180108141100200419010837
S31508000F50B81800202C19010810B5044600F06EFCDC
S31508000F6001460022204606F051FA00B910BD044693
S31508000F70022000F0A7FB0028F8D00DF066FF0DF060
S31508000F8065FF22460249034B18680FF05EF9EDE744
S31508000F90781901081411002070B582B00446694614
S31508000FA00FF097FE0546032000F08CFB80B910224F
S31508000FB01949204600F034FD00F040FC01460023A4
S31508000FC00122204606F014FA0446A8B902B070BDFC
S31508000FD00DF03BFF0DF03AFF104B1E6820460FF050
S31508000FE063FE02462946204603F0DCF902460C4910
S31508000FF030460FF02AF9DAE7022000F063FB0028F2
S31508001000E4D00DF022FF0DF021FF22460549034BDF
S3150800101018680FF01AF9D9E7000800201411002003
S3150800102094190108A419010830B58DB00446494B36
S315080010301B68002B31D007AA022120460FF05EFF5D
S31508001040444B18601B68002B36D0424B1B6813B301
S31508001050404B196801AA20460FF054FF05460028A0
S3150800106039D1002300939DF81130002B43D03A481C
S315080010700EF020F80025374B196820460FF046FF7A
S315080010800446002841D19DF81130002B4DD1334B31
S315080010901B78002B58D10DB030BD012000F012FB93
S315080010A00028C8D00DF0D1FE0DF0D0FE2C492D4BEE
S315080010B018680FF0CAF8BEE7012000F003FB002805
S315080010C0C3D00DF0C2FE0DF0C1FE2749254B1868A6
S315080010D00FF0BBF8B9E7012000F0F4FA0028C0D0F9
S315080010E00DF0B3FE0DF0B2FE2A4620491D4B1868D6
S315080010F00FF0ABF8B5E71E480DF0DCFF6A4607A906
S315080011001C4800F05FFC0546B5E7022000F0DAFA55
S315080011100028B8D00DF099FE0DF098FE2246164923
S31508001120104B18680FF091F8ADE7032000F0CAFAE3
S315080011300028B0D00DF089FE0DF088FE0F49094B46
S3150800114018680FF082F8A6E72946009800F0BAFC5E
S31508001150A1E700BF940C0020542601083809002096
S31508001160C019010814110020381A0108781A010854
S315080011703C260108940B0020A01A0108C41A01088D
S3150800118030B583B04FF48073002213490FF0B2FED6
S31508001190B0F5807F01D103B030BD04460F4D10492C
S315080011A028680FF052F80DF050FE0DF04FFE0D4B6B
S315080011B00093A0230C4A0D4928680FF046F80C4AFC
S315080011C00C4928680FF041F84FF4807322460A4903
S315080011D028680FF03AF8FEE7980C00201411002052
S315080011E0A0190108D41B0108D81A0108EC1A01082D
S315080011F0F81A01082C1B0108441B010808B5374BCF
S315080012001B782BB1354B00221A70354B03221A7006
S31508001210334B1B78DBB2032B4ED8DFE803F0021CF6
S315080012203C4A304B1B784BB92F4B1B7863B12E4B7E
S3150800123000221A702A4B02221A7034E0294B002227
S315080012401A70FFF789FE2EE0284B1B785BB3244BF8
S3150800125001221A7027E0254B1B7863B9244B1B78AB
S315080012600BB3032000F02EFA58B900231C4A13705A
S315080012701F4A137017E01D4B00221A70FFF78CFEE9
S3150800128011E00DF0E2FD0DF0E1FD1A491A4B186860
S315080012900EF0DBFFE9E7FFF7C7FE124B01221A70D3
S315080012A00F4B00221A70154B00200021C3E90001DC
S315080012B008BDFFF7EBFDF6E7012000F003FA00286A
S315080012C0F1D00DF0C2FD0DF0C1FD054B1A780C49A1
S315080012D0094B18680EF0B9FFE5E700BFB9180020FA
S315080012E0BC18002039090020BA180020BD180020B3
S315080012F0BB1800209C1B010814110020500900206F
S31508001300B41B010838B505461C461B4B1A605C60C1
S3150800131002F0AA4104F022030B4305D012F0807FA5
S315080013200FD0164B01211970154B1A4205D012F031
S31508001330080F0AD1134B01221A7014F4007F0DD13D
S3150800134038BD104B01211970EEE728460FF0DCFD79
S315080013500D4B18600D4B01221A70EEE7002211465C
S3150800136028460FF00BFD0A4B18701B78002BE7D0A8
S31508001370044B01221A70E3E750090020BB1800202D
S31508001380088D0100B9180020940C0020BA18002016
S31508001390B818002008B50DF03DFE012800D008BD9C
S315080013A0014B01221A70FAE7BD18002008B50FF0A4
S315080013B045FAFFF7E7FC054B18600FF04BFA034BAD
S315080013C01868FFF71BFF04F01BFEF6E7980D0020D0
S315080013D030B585B0094C2268094B1A60094D0A4B8D
S315080013E02B600A4B019304F01DF802902B680393B7
S315080013F001A920680EF03BFA05B030BD2C08002084
S31508001400C8140020C41400202008002088230108DE
S3150800141008B5024B18680EF03EFA08BD2C080020E5
S3150800142038B503F0FFFF0446064D2B68D3F8B00223
S3150800143003F0ECFF28680EF048FA204603F0E6FFB2
S3150800144038BD00BF2C08002008B501F065FE0EF077
S315080014505EF8264A136F23F0070343F00303136766
S3150800146002F014F8224B9B6A13F0807F03D1214BBC
S315080014704FF480329A621D4BD3F8202122F00702DE
S3150800148042F00202C3F82021D3F8282122F00702ED
S3150800149042F00202C3F82821D3F8402122F00302C1
S315080014A042F00202C3F84021D3F8602122F0030279
S315080014B042F00202C3F86021D3F8402222F0030268
S315080014C042F00202C3F84022D3F8002222F00702B3
S315080014D042F00202C3F80022D3F8082222F00702DB
S315080014E042F00202C3F80822002008BD008000501E
S315080014F00040005A0060005A022907D808B5044B74
S315080015001B68186808B1436A984708BD704700BF4A
S315080015103808002030B59FB0274C0DF1580CA64668
S31508001520BEE80F00ACE80F009EE80F008CE80F003D
S31508001530302200210AA810F066F8204B0A930122EF
S315080015408DF82D2056230C9305230F93062311930C
S31508001550092313930823159308AB203494E8030052
S3150800156083E803000DF1080C002402940394049404
S315080015700594069407948CE803000B238DF8103025
S315080015800C238DF811300E4B0593202306938DF806
S315080015901C208DF81D200B4B00930AAB16AA61463A
S315080015A0094803F0C9FF054621464FF4E1300DF01E
S315080015B0BDFC28461FB030BDA02301080000015B12
S315080015C0D010002058100020F010002008B503495C
S315080015D0034804F0C3FCFFF79DFF08BD3008002050
S315080015E0C810002008B502480EF06EFE08BD00BF00
S315080015F0F010002008B502480EF066FE08BD00BFD0
S31508001600F010002008B5024B1A6A1868904708BD02
S31508001610F010002070B582B005460E460E4C0F49F4
S3150800162020680EF012FE0DF010FC0DF00FFC0C4BAE
S31508001630009339230B4A0C4920680EF006FE0B4A24
S315080016400B4920680EF001FE33462A4609492068F0
S315080016500EF0FBFDFEE700BF14110020A0190108DB
S3150800166014240108C8230108EC1A0108EC23010810
S315080016702C1B0108F023010882B0054B019302AB2D
S3150800168003EB800050F8043C186802B0704700BFAE
S315080016903C08002008B503480DF0B5FC02480DF0DB
S315080016A0B2FC08BD0C2601082426010808B5034823
S315080016B00DF0F6FC02480DF0F3FC08BD3C260108C7
S315080016C05426010803460B4A107828B10A4A1278AC
S315080016D09A4202D2002000E00120084A12783AB164
S315080016E0074A127842FA03F313F0010F00D10020DB
S315080016F0704700BF3A0900203B090020BE180020A9
S315080017003C09002008B5084B01221A70074B002235
S315080017101A70074B04221A70064B1F221A7003F020
S3150800172081FE054B186008BD3A090020BE18002046
S315080017303B0900203C090020141100200B4B1B68B4
S31508001740002201E01A469B6A0BB18342FAD1834212
S3150800175001D0002070471AB1836A9362012070474E
S31508001760826A024B1A600120704700BF18110020D8
S31508001770124B1B680BB310B5114B1C6804E0236AA7
S31508001780616A20469847A46AB4B194F82C30002BB5
S31508001790F9D00DF0CFFE002384F82C30074A1368E1
S315080017A0013B13600DF0CCFE94F82D30002BE6D1EA
S315080017B02046FFF7C3FFE2E710BD70471C11002063
S315080017C018110020034B1B680BB901207047042031
S315080017D0704700BF1C110020034B1B680BB9012082
S315080017E070470020704700BF1C11002038B50F4B0A
S315080017F01B689B68DC891D8A844205D8854203D309
S315080018000B4B1880012004E00120FFF75BFF08B9A5
S31508001810002038BD0DF019FB0DF018FB2B462246AB
S315080018200449054800680EF010FDF1E71808002085
S31508001830981800206C26010814110020014B1888FE
S3150800184080B270479818002010B582B00020FFF7C4
S31508001850CDFF012801D102B010BD0D4C0D492068FD
S315080018600EF0F3FC0DF0F1FA0DF0F0FA0A4B0093C6
S3150800187059230A4A0A4920680EF0E7FC094A0A4928
S3150800188020680EF0E2FC094920680EF0DEFCFEE74F
S3150800189014110020A01901088027010894260108C0
S315080018A0EC1A01081C2701082C1B01082C27010823
S315080018B010B50020FFF7E0FE0446FFF7BFFF01461C
S315080018C00022204605F0A2FD044608B9204610BDB0
S315080018D00220FFF7F7FE0028F8D00DF0B6FA0DF053
S315080018E0B5FA22460249034B18680EF0AEFCEDE73E
S315080018F0502701081411002010B50320FFF7E2FE57
S3150800190000B910BD0DF0A1FA0DF0A0FA044B1C6841
S31508001910FFF794FF0246034920460EF096FCF0E7CF
S31508001920141100209827010808B58368C26853F87F
S3150800193022301878FFF75AFF88B10320FFF7C2FE56
S3150800194018B9FFF7B5FFC8B908BD0DF07EFA0DF056
S315080019507DFA1249124B18680EF077FCF1E702205F
S31508001960FFF7B0FE0028ECD00DF06FFA0DF06EFA16
S315080019700C490B4B18680EF068FCE2E70220FFF7EB
S31508001980A1FE0028E0D00DF060FA0DF05FFA0649D6
S31508001990034B18680EF059FCD6E700BFB4270108B8
S315080019A014110020DC270108FC270108014B1878D0
S315080019B0704700BFBF180020014B1870704700BF62
S315080019C0BF18002070B505460C4616468A888968F1
S315080019D00FF0F2FDE16831B16288A088121A92B25E
S315080019E028440FF0E9FD35600A4B1B780BB960886F
S315080019F070BD0320FFF766FE0028F8D00DF025FA23
S31508001A000DF024FA62880449044B18680EF01DFC90
S31508001A10EDE700BFBF1800201828010814110020A0
S31508001A2070B584B00391154601230FF061FA044698
S31508001A30854204D1194B1B78FBB904B070BD184E0A
S31508001A40184930680EF001FC0DF0FFF90DF0FEF9AB
S31508001A50154B00934FF4A373144A154930680EF0DA
S31508001A60F4FB144A144930680EF0EFFB2B46224665
S31508001A70124930680EF0E9FBFEE70320FFF722FE65
S31508001A800028DAD00DF0E1F90DF0E0F903AB2246B3
S31508001A900B49034800680EF0D8FBCEE7BF180020B4
S31508001AA014110020A0190108C02901083C280108C2
S31508001AB0EC1A0108C42801082C1B0108E4280108AF
S31508001AC03029010870B538B10D460646E9B9012036
S31508001AD0FFF7F8FD78B970BD0120FFF7F3FD002880
S31508001AE0F9D00DF0B2F90DF0B1F92A492A4B186868
S31508001AF00EF0ABFBEFE70DF0A8F90DF0A7F92749B3
S31508001B00254B18680EF0A1FBE5E70320FFF7DAFD81
S31508001B1008B900240FE00DF098F90DF097F920495F
S31508001B201D4B18680EF091FBF3E70320FFF7CAFD7B
S31508001B30B0B90134A4B2AC421DD26B1E9C42F4D09B
S31508001B400320FFF7BFFD0028F3D00DF07EF90DF056
S31508001B507DF9325D1349104B18680EF076FBE8E7FD
S31508001B600DF073F90DF072F9325D0F490A4B1868DA
S31508001B700EF06BFBDDE70320FFF7A4FD0028AAD0D3
S31508001B800DF063F90DF062F90849034B18680EF079
S31508001B905CFBA0E75C2901081411002078290108DC
S31508001BA090290108B4290108AC290108A0190108DF
S31508001BB010B50320FFF786FD00B910BD0DF045F9F5
S31508001BC00DF044F9064B1C68FFF7F0FE28B1054AEC
S31508001BD0054920460EF039FBEFE7044AF8E700BF4F
S31508001BE014110020C0170108D0290108BC170108E4
S31508001BF010B58368C26853F822301B783BB10120C0
S31508001C00FFF7DAFE0320FFF75DFD20B910BD0020BF
S31508001C10FFF7D2FEF6E70DF018F90DF017F9064BA7
S31508001C201C68FFF7C3FE28B1044A054920460EF092
S31508001C300CFBEBE7034AF8E714110020C01701086C
S31508001C40D0290108BC17010800B583B002218DF818
S31508001C500010002205480DF010F901900821684689
S31508001C600DF017F903B05DF804FB00BF006A180011
S31508001C7008B500F02DF8124A0AE01068516850F8C5
S31508001C80230041F82300013391688B42F5D30C32C7
S31508001C900C4B9A4201D20023F6E70B4A08E011687A
S31508001CA0002041F82300013351688B42F7D30832EC
S31508001CB0064B9A4201D20023F6E7FEF789FF00BFDA
S31508001CC0408201084C8201084C8201084C820108B6
S31508001CD010B4144B144A9A60D3F8882042F4700260
S31508001CE0C3F88820114A4FF480419166104901F5DE
S31508001CF000524FF0FF3010660E4850660220C3F8B7
S31508001D00D000BFF34F8FBFF36F8F0B480124C0F885
S31508001D1080414FF44033D36004600B615DF8044B97
S31508001D20704700BF00ED00E000000008009000507A
S31508001D3000800044F7FF370000E100E0014B186817
S31508001D40704700BF5C08002008B5094B1B6F03F0FD
S31508001D500703022B04D0032B05D0012B06D0FEE780
S31508001D60FFF7ECFF03E0034B186800E0024808BDE4
S31508001D700080005060080020002D310108B5FFF7EB
S31508001D80E3FF054B1B6FC3F303330133B0FBF3F0DB
S31508001D90024B186008BD00BF00800050580800209C
S31508001DA00048704700B4C404014B1868704700BF68
S31508001DB06008002008B5064B1860064B1B6F03F039
S31508001DC00703032B00D008BDFFF7D8FFFBE700BFCA
S31508001DD0600800200080005000487047002D31013F
S31508001DE04FF0B4439868C0F304400C2808D8DFE8DD
S31508001DF000F009070707070722181A071C1E200004
S31508001E00002070474FF0B4439B6803F04073B3F16A
S31508001E10807F12D0B3F1007F11D003B17047094813
S31508001E207047094870470948704709487047094884
S31508001E307047094870470948704709487047094874
S31508001E40ECE700BF00093D000024F400C0EA2101C8
S31508001E5080BA8C010048E801005A6202405DC6005B
S31508001E6080841E0040420F00014B1868704700BF6F
S31508001E7064080020F0B18446F1B110B409E004F119
S31508001E8020030FE02030181A18D1BCB10CF1010C50
S31508001E9001319CF800400B4BE35C03F00303012B74
S31508001EA0EDD023460878074A825C02F00302012A2D
S31508001EB0E9D1E7E701207047012070475DF8044B38
S31508001EC0704700BFD18001080346064A10680344DC
S31508001ED0054A934202D8034A136070474FF0FF3011
S31508001EE0704700BF68080020000004200A681378BD
S31508001EF0022B00D1704710B508461379517903EBC8
S31508001F0043031B011433064C1B59CB4013F0010F36
S31508001F100CBF012300231370FFF73CFA10BD00BF66
S31508001F2030C0035030B583B00546046801213A2015
S31508001F3000F056FF002301226179207901F062FF43
S31508001F402379627903EB43031B0114330F495B586A
S31508001F50D34013F0010F0CBF012300232370A3798C
S31508001F60022B02D0002003B030BD00F0EDFB2A465C
S31508001F700749607900F010FC02466179207901234F
S31508001F800193009301F0AAFEECE700BF30C00350AE
S31508001F90ED1E000802681378022B12D013795179C6
S31508001FA003EB43031B01143312481B58CB4003F0C1
S31508001FB0010003469179012904D011B980F0010086
S31508001FC0107070475188490089B20B4343F47F4328
S31508001FD043F0C0034FF6E0718B4205D04FF6DF7130
S31508001FE08B4204D05380704701211170F6E7002117
S31508001FF01170F7E730C0035008B501213A2000F008
S31508002000EFFE012304220321002001F0FBFE00203D
S315080020100DF0F0FA334B0122C3F84424A3F55033EC
S315080020204FF400225A66304BD3F8FC2012F0807227
S3150800203006D01946D3F8FC3023F08073C1F8FC307B
S315080020402A49D1F8803023F0030343F00203C1F88C
S31508002050803032B1244AD2F8FC3043F08073C2F89B
S31508002060FC304FF460700DF07BF81F4BD3F8F0206E
S3150800207042F00102C3F8F020D3F8FC2042F0807247
S31508002080C3F8FC20A3F55D43194A1A6000F5D5206C
S3150800209000F2FC40C008174BA3FB0030800A013849
S315080020A0154B18610222C3F8F0204FF48072C3F86A
S315080020B004234FF06043114AC3F8B02F104AC3F8FF
S315080020C0802ED3F8002E42F48072C3F8002EFF2229
S315080020D083F82020D3F8002E22F48072C3F8002E4D
S315080020E0002008BD00D0035000ED00E0008000503D
S315080020F0FF03004017916502000004E055CEACC509
S31508002100090001004FF06043D3F8803E13F0010F39
S3150800211001D1112070470E4AD2F8FC3043F0807383
S31508002120C2F8FC304FF06043D3F8002E4FF0010C94
S315080021300CFA00FC42EA0C02C3F8002E53F82030D1
S31508002140002BE8D04FF0604303F8201000207047BA
S3150800215000ED00E083784BB903784278012191407D
S3150800216003EB43031B01064AD150704703784278B4
S315080021700121914003EB43031B01024AD1507047EA
S3150800218040E0035040D0035083784BB90378427837
S315080021900121914003EB43031B01064AD1507047C6
S315080021A0037842780121914003EB43031B01024A5D
S315080021B0D150704740D0035040E00350037842782E
S315080021C00121914003EB43031B01014AD15070479B
S315080021D040F0035002460378407803EB43031B01A3
S315080021E0103305495B58C34003F0010093780BB9D7
S315080021F080F00100704700BF30C00350F0B585B0CD
S315080022000C4694469DF83410664A1278002A00F067
S31508002210BD800546BCF1070F00F2BA800A9A002A6B
S3150800222000F0B8800B9A002A00F0B6800E9AB2F534
S31508002230006F00F3B38001285BD05B4A02EB0C12F7
S31508002240127B002A00F0AC800022009201920292D2
S315080022500392564A02EB4C1E002C4FD14FEA4C16FD
S3150800226000209051CEF80400CEF80800CEF80C00F5
S315080022709EF8020040F010008EF802009EF8030057
S3150800228040F030008EF8030021B9C1B241F00301D5
S315080022908EF8031000930E9B013B444A4FEA4C10FC
S315080022A002EB4C11165A63F30E1616520A9B8B60F4
S315080022B00B9B4B60CB789DF83C2062F38303CB7075
S315080022C0012D36D0109B002B56D0374A4FEA0C11F9
S315080022D002EB0C1310985050119A5A6000249C6017
S315080022E05D7372466946604601F056FE204605B0A3
S315080022F0F0BD0C9A002AA0D12D48F8E72B4F4FEADB
S315080023004C1607EB4C120020B85150609060D06014
S31508002310907840F010009070D07840F00300D070AC
S315080023200029B7D107EB4C12C1B241F03001D17088
S31508002330B0E70E460A7B42F001020A73D2B242F0B7
S3150800234002020A73CA68042161F39F02F26006F169
S31508002350100796E80F0087E80F00F2696FF003018F
S3150800236061F39F02F2610C9B7361012CAAD10B9A4F
S31508002370B2610C9A7260A5E7002DA6D10B4B03EB50
S315080023804C139A786FF304129A709EE70948AEE7E1
S315080023900748ACE70648AAE70548A8E70448A6E7B9
S315080023A00548A4E7C018002020110020A01100202D
S315080023B0018000F0028000F0078000F0134B1B78C4
S315080023C0FBB110B50446F0B10DF0B4F80023072BA5
S315080023D013D80F4A02EB0312127B0AB10133F6E750
S315080023E023600B4A190102EB031301241C73002412
S315080023F054500DF0A5F8204602E00DF0A1F8054866
S3150800240010BD054870470548FAE700BFC018002008
S3150800241020110020048000F0028000F0018000F006
S3150800242038B50DF087F804460023072B06DC0C4A5E
S3150800243002EB0312127B12B90133F6E7002222B12E
S3150800244020460DF07DF8074838BD01F047FD002508
S31508002450054B1D7020460DF073F82846F4E700BFBB
S3150800246020110020058000F0C01800200F4B1B78B3
S31508002470BBB110B50446072815D80DF05BF80C4B10
S3150800248003EB04131B7B1BB90DF05AF809480BE044
S31508002490074B03EB041300241C730DF051F8204678
S315080024A002E005487047054810BD00BFC018002067
S315080024B020110020068000F0028000F0018000F064
S315080024C000B583B0134B1B68019300238DF80430C5
S315080024D00DF030F8104B1B7833B90F4B01221A70E8
S315080024E00DF02EF8002309E00DF02AF80B480EE04F
S315080024F00B4A02EB0312002111730133072BF7DD98
S3150800250008238DF8073001A801F014FD002003B058
S315080025105DF804FBE8290108C0180020038000F0D4
S315080025202011002008B50A4B1B785BB107280BD889
S31508002530084B03EB00131B7B43B1002101F0ECFCB5
S31508002540002008BD0448FCE70448FAE70448F8E711
S31508002550C018002020110020028000F0018000F041
S31508002560078000F008B50A4B1B785BB107280BD823
S31508002570084B03EB00131B7B43B1012101F0CCFC94
S31508002580002008BD0448FCE70448FAE70448F8E7D1
S31508002590C018002020110020028000F0018000F001
S315080025A0078000F008B50A4B1B7853B107280AD8EC
S315080025B0084B03EB00131B7B3BB101F037FD0020F2
S315080025C008BD0548FCE70548FAE70548F8E700BFEF
S315080025D0C018002020110020028000F0018000F0C1
S315080025E0078000F00F4B1B78A3B1072814D8A9B1B0
S315080025F00D4B03EB00131B7B93B10C4B1B6D012298
S3150800260002FA00F0184002D00A7000207047002332
S315080026100B7070470648704706487047054870476C
S3150800262005487047C01800202011002000000450FB
S31508002630028000F0018000F0078000F00C4B1B7848
S3150800264073B110B50C4607280CD869B1094B03EBD2
S3150800265000131B7B53B101F0FBFC2070002010BD5A
S31508002660054870470548FAE70448F8E70448F6E7D6
S31508002670C018002020110020028000F0018000F020
S31508002680078000F0F8B5194B1F6D5B6D1F4002D42B
S315080026900125002402E0FEE701346D00072C24D84A
S315080026A03D42F9D0124B1D652301124AD358002B1F
S315080026B0F2D002EB0416B1680131B16072682046A7
S315080026C0984780F00100C0B2737B012BE4D1002843
S315080026D0E2D0094B03EB44131A7B6FF341021A73DA
S315080026E01A7F6FF341021A77D6E7F8BD0000045047
S315080026F00020045020110020A011002010B5044627
S3150800270002E0202007E09047DCB194FAA4F0002804
S31508002710F7D0B0FA80F00123834024EA0304094B7A
S3150800272003EB00135A68002AEED0064B03EB00139E
S315080027301B7B002BE7D0034B03EB001399689047EC
S31508002740E2E710BDA012002008B5192000F0BCFE73
S3150800275028B1084B4FF00072C3F880211A601A207E
S3150800276000F0B2FE28B1034B4FF08062C3F8802117
S315080027701A6008BD00E100E038B505460C460CF0C5
S31508002780D9FE044B03EB05135C6000221A730CF0A8
S31508002790D7FE38BDA0120020F8B505460F461646E6
S315080027A00CF0C8FE05F0FC0C104BD3F824140023DB
S315080027B0032B0CD8EC1804F0030444EA0C0421FAA1
S315080027C004F212F0010F03D00133DBB2F0E7FF2465
S315080027D0FF2C06D0064B03EB04135F609E600122B4
S315080027E01A730CF0ADFE2046F8BD00BF00C00350BA
S315080027F0A012002008B5084BD3F82404D3F82024E7
S31508002800104000F0553020F0502003F50053C3F86F
S315080028102004FFF773FF08BD00C0035008B5084B36
S31508002820D3F82404D3F82024104000F0AA3020F06E
S31508002830A02003F50053C3F82004FFF75FFF08BD87
S3150800284000C00350024B4FF480321A67704700BF2E
S315080028500090005038B505460C460F4BD3F880302B
S3150800286003F00303022B0ED0032B10D0012B06D046
S315080028700023184605B1286004B1236038BDFFF768
S3150800288063FA0E23F6E7FFF7ABFA0723F2E7FFF73B
S3150800289055FA0623EEE700BF0080005038B5054616
S315080028A00C46174BD3F8200100F00700062823D85A
S315080028B0DFE800F0040A0E16121A1E00012305B1FD
S315080028C0286004B1236038BDFFF738FA0523F6E718
S315080028D0FFF76AFA0323F2E7FFF782FA0723EEE720
S315080028E0FFF77AFA0223EAE7FFF728FA0623E6E76C
S315080028F0FFF75AFA0423E2E700231846DFE700BF8A
S315080029000080005038B505460C46164BD3F82831DA
S3150800291003F00703013B052B20D8DFE803F0031378
S315080029201B0F0B17FFF70AFA052305B1286004B138
S31508002930236038BDFFF702FA0623F6E7FFF750FAD9
S315080029400723F2E7FFF730FA0323EEE7FFF72CFA3F
S315080029500423EAE7FFF740FA0223E6E700231846CE
S31508002960E3E700BF0080005070B582B006460D460A
S3150800297000230193104BD3F8804104F00304022C82
S3150800298016D0032C0FD0012C07D000240EB1019BC2
S31508002990336005B12C6002B070BD002101A8FFF7B5
S315080029A07DFF1024F2E7FFF71BFA01900724EDE7F5
S315080029B0FFF712FA0190E9E70080005030B583B0BE
S315080029C005460C4600230193154BD3F8203203F035
S315080029D00703042B21D8DFE803F0030B11161B00AD
S315080029E001230DB1019A2A6004B1236003B030BDFA
S315080029F0002101A8FFF786FF1223F2E7FFF7F0F997
S31508002A0001900723EDE70CF0A3FA01900A23E8E703
S31508002A10FFF72AFA01900923E3E70023E1E700BF5D
S31508002A200080005038B505460C46104BD3F84001D7
S31508002A3000F00300032815D8DFE800F002080C10A0
S31508002A40012305B1286004B1236038BD0CF080FA73
S31508002A500A23F6E7FFF708FA0923F2E70CF07BFAF0
S31508002A600C23EEE700231846EBE700BF0080005072
S31508002A7030B583B005460C4600230193144BD3F8B2
S31508002A80603203F00703013B032B1FD8DFE803F08E
S31508002A90020E1914002101A8FFF700FF10230DB13B
S31508002AA0019A2A6004B1236003B030BD002101A851
S31508002AB0FFF7B8FF1123F2E7FFF792F90190072312
S31508002AC0EDE7FFF789F901900223E8E70023E6E737
S31508002AD00080005030B583B005460C4600230193AC
S31508002AE0144BD3F8943203F00703013B032B1FD88A
S31508002AF0DFE803F0020E1914002101A8FFF7CEFE45
S31508002B0010230DB1019A2A6004B1236003B030BDC9
S31508002B10002101A8FFF786FF1123F2E7FFF760F906
S31508002B2001900723EDE7FFF757F901900223E8E73D
S31508002B300023E6E70080005030B583B005460C4612
S31508002B40002301930C4BD3F8703203F00303012BD7
S31508002B5009D0022B0DD115230DB1019A2A6004B1B3
S31508002B60236003B030BD002101A8FFF75BFF1123E6
S31508002B70F2E70023F0E700BF0080005038B50546AD
S31508002B800C46134BD3F8000200F0070004281BD8A4
S31508002B90DFE800F003090D111500012305B12860CF
S31508002BA004B1236038BD0CF0D3F90A23F6E7FFF722
S31508002BB05BF90923F2E70CF0CEF90C23EEE7FFF7F1
S31508002BC0DDF8800A0F23E9E700231846E6E700BF89
S31508002BD00080005038B505460C46134BD3F808025A
S31508002BE000F0070004281BD8DFE800F003090D11E0
S31508002BF01500012305B1286004B1236038BD0CF027
S31508002C00A7F90A23F6E7FFF72FF90923F2E70CF0ED
S31508002C10A2F90C23EEE7FFF7B1F8800A0F23E9E7DC
S31508002C2000231846E6E700BF0080005038B5054681
S31508002C300C46104BD3F8400200F00300032815D8C1
S31508002C40DFE800F002080C10012305B1286004B182
S31508002C50236038BD0CF07CF90A23F6E7FFF704F980
S31508002C600923F2E70CF077F90C23EEE70023184660
S31508002C70EBE700BF0080005038B505460C46104B00
S31508002C80D3F8600100F00300032815D8DFE800F048
S31508002C9002080C10012305B1286004B1236038BD71
S31508002CA00CF056F90A23F6E7FFF7DEF80923F2E7F0
S31508002CB00CF051F90C23EEE700231846EBE700BFAA
S31508002CC00080005038B505460C46104BD3F8000175
S31508002CD000F00300032815D8DFE800F002080C10FE
S31508002CE0012305B1286004B1236038BDFFF75CF8FD
S31508002CF00323F6E7FFF7B8F80923F2E70CF026F9FD
S31508002D000823EEE700231846EBE700BF00800050D3
S31508002D10B0F5207F20D00ED8B0F5007F16D020D889
S31508002D2010B1B0F5C07F04D10F4B186FC0F3033054
S31508002D3018E0002016E0B0F5607F05D10A4BD3F8FD
S31508002D408000C0F301100DE000200BE0064BD3F81D
S31508002D509000C0F3046005E0034B186FC0F38020B1
S31508002D6000E00020013070470080005038B5054665
S31508002D700C46174B4FF480329A660020FFF7C8FFBF
S31508002D8005FB00F0134BDA6902F4803241F6713123
S31508002D90D9635B6823F440136CB90F49884207D896
S31508002DA000210B430B494B600AB10022CA6338BDA8
S31508002DB04FF48011F5E7002C07DD0849884201D851
S31508002DC00021EEE74FF48011EBE74FF44011E8E7F6
S31508002DD00090005000000350005A6202002D310195
S31508002DE0430905D0012B0ED0022B0ED0002200E09D
S31508002DF0002200F01F0051B102F58052012303FAA8
S31508002E0000F010607047034AF3E7034AF1E702F55A
S31508002E100052F3E7648000506880005008B58020AF
S31508002E200CF09EF9034B984203D8034B4FF48032BB
S31508002E301A6708BD005A620200A0005000B583B0A8
S31508002E4000230193B0F5807F00F04A8118D9B0F5C8
S31508002E50F06F00F04A8140F2DB80B0F5206F00F099
S31508002E60538140F20481B0F5406F00F04881B0F517
S31508002E70486F40F00C8101A90020FFF72BFEDFE028
S31508002E80802800F2DD802428C0F0DA8024385C2807
S31508002E9000F2D68001A353F820F000BFD73000080F
S31508002EA0D7300008D7300008D7300008D7300008D8
S31508002EB041300008CD300008413000086530000870
S31508002EC0F53000084130000841300008413000085C
S31508002ED04130000841300008413000084130000800
S31508002EE041300008413000084130000841300008F0
S31508002EF041300008413000084130000841300008E0
S31508002F00EB30000825300008413000084130000841
S31508002F1041300008413000084130000841300008BF
S31508002F2041300008413000084130000841300008AF
S31508002F30413000084130000841300008413000089F
S31508002F40D7300008413000084130000841300008F9
S31508002F508530000841300008413000080931000872
S31508002F609530000855300008FF3000084130000849
S31508002F70413000084130000841300008413000085F
S31508002F80772E00084130000841300008413000081B
S31508002F90413000084130000841300008413000083F
S31508002FA0413000084130000841300008413000082F
S31508002FB0413000084130000841300008413000081F
S31508002FC0413000084130000841300008413000080F
S31508002FD041300008413000084130000841300008FF
S31508002FE041300008413000084130000841300008EF
S31508002FF041300008413000084130000841300008DF
S315080030004130000841300008413000089F30000870
S31508003010B0F5B06F5AD00AD9B0F5D06F6AD0B0F50E
S31508003020E06F1CD101A90020FFF700FE08E0B0F50B
S31508003030607F04D101A90020FFF70CFC00E003D251
S31508003040019803B05DF804FBB0F5806F43D0B0F586
S31508003050A06FF5D101A90020FFF7B0FCF0E7B0F5A5
S31508003060C06FEDD101A90020FFF7DCFCE8E7B0F559
S31508003070086F04D101A90020FFF724FEE0E7B0F5A8
S31508003080106FDDD101A90020FFF7A4FDD8E7B0F540
S31508003090286FD5D101A90020FFF74EFDD0E71D4BBB
S315080030A01B6F03F00703013B032BC9D8DFE803F0C6
S315080030B00B02050805230193C2E703230193BFE723
S315080030C008230193BCE702230193B9E701A900206D
S315080030D0FFF74AFCB4E701A90020FFF7DFFBAFE7DB
S315080030E001A900200CF017F8AAE701A90020FFF7AC
S315080030F0C3FDA5E701A90020FFF740FDA0E701A948
S315080031000020FFF7FFFB9BE701A90020FFF7B0FCB3
S3150800311096E700BF00800050044B4FF480125A66B1
S31508003120034B4FF480329A62704700BF00900050FC
S315080031300050005A38B504468020FFF77FFE032862
S3150800314000F0AD805E4B4FF480125A665D4B45F633
S315080031500E02C3F8802003F580524FF0A0619162F9
S3150800316003F500534FF480329A62564B9B6D13F465
S31508003170803FFAD1534B9B6D13F0804FFAD12268EA
S3150800318063681B0543EA0263227B43EA0243627BC8
S3150800319043EA0233A27B43EA8213E27B1343494A9A
S315080031A01361936903F00043216943EA8163616906
S315080031B043EA0163217E43EA0143617E43EA012330
S315080031C0A17E0B439361136A23F00F03E269002A79
S315080031D045D111460B43E17E43EA81031343394A3D
S315080031E01362E369002B3CD1916A374B0B4094F884
S315080031F0201043EA411394F8211043EA011394F886
S31508003200241043EAC10343F4803393622D4B9A6D2D
S315080032102E4B9343FAD12B4A02F580514FF0807317
S315080032208B62136923F47003A06843EA00531361A1
S315080032304FF000438B6194F822301BB9244B4FF0B2
S3150800324080729A6294F8233013BB214B4FF4803274
S315080032509A621C4B9B6D13F0804FFAD118E0082137
S31508003260B8E7022B1CD0174A916A174B0B4094F803
S31508003270201043EA411394F8221043EA016394F8B4
S31508003280241043EAC10394F8231043EA01439362E6
S3150800329094F825301BB10B4B0E4AC3F8802038BD75
S315080032A0084D00232B61AB610CF03DF96A6B82F483
S315080032B0085303F47F4353406B630CF038F9D2E7A5
S315080032C0009000500040005AC7FFFEFE03000100B0
S315080032D00060005AF1A7FFFF014B93F90000704701
S315080032E03D09002010B443784F2B28BF4F231A46B8
S315080032F01C4B4FF40001596603F5B8334FF4D1510E
S31508003300596203F5805102244C6003F500530121EC
S315080033105960154B1B6913F4803FFAD1037842EACA
S315080033200323114A5361416883681B0143EA012359
S31508003330017B43EA4103417B0B439360817BC37B5B
S315080033401B0143EA4113017C43EA4103417C0B43D9
S315080033505360837C1BB113466FF4D1525A625DF8F1
S31508003360044B70470090005000000250014B188033
S31508003370704700BF2E090020014B1880704700BF18
S315080033802C090020B0F5207F5DD02DD8B0F5007F40
S315080033904ED061D810B1B0F5C07F24D110B54C1EFF
S315080033A00BF0D7FE0CF0ACF8FFF74CFA2B4B196F65
S315080033B021F4704141EA04311967FEF7DFFC284B16
S315080033C0D3F8843013F0100FF9D1254BD3F88410B5
S315080033D0C1F38111C1F102010CF087F800F044F83D
S315080033E0FFF71CFD10BD7047B0F5607F1FD11D4B60
S315080033F0D3F8FC2012F0807206D01846D3F8FC30B9
S3150800340023F08073C0F8FC3001391448D0F88030B6
S3150800341023F0300343EA0111C0F88010E2B1114AE3
S31508003420D2F8FC3043F08073C2F8FC30704770471E
S3150800343001390A4AD2F8903023F0F85343EA016179
S31508003440C2F8901070470139044A136F23F4806359
S3150800345043EA812111677047704700BF008000501A
S315080034600040005000ED00E008B54FF4C0700BF0C6
S3150800347077FE054B984205D902214FF42070FFF7D5
S3150800348081FF08BD0121F8E780F0FA0208B5FEF7CA
S3150800349075FC0C4BD3F8843013F0100FF9D1094B97
S315080034A0D3F88410C1F38111C1F102010CF01DF8A3
S315080034B00121002000F0A0F8FFF7D6FFFFF7AEFCC9
S315080034C008BD00BF004000504209064B53F82230A1
S315080034D000F01F0023FA00F080F0010000F0010060
S315080034E0704700BF00E100E0044A536F23F44073BD
S315080034F0417843EA01235367704700BF00400050F4
S3150800350010B50446094A136943F00403136102F02F
S3150800351049FF0CF018F830BF0CF016F802F058FF07
S3150800352004B110BDFEF72AFCFBE700BF00ED00E082
S3150800353010B50446074A136943F00403136102F001
S3150800354031FF30BF02F044FF04B110BDFEF716FC90
S31508003550FBE700BF00ED00E0034AD36E23F030031B
S3150800356001790B43D366704700400050F8B504460E
S31508003570204BD3F8843013F0100FF9D11D4BD3F834
S315080035808430C3F381139C422DD0FEF7DDFB06463B
S31508003590012C11D00BF0C7FF0546164F07F500534F
S315080035A04FF000725A6620460BF0D1FF621E4FF4A8
S315080035B0806393403B6706E001210BF096FFE9E73D
S315080035C00C4BD3F884300B4B5B6E13F0007F05D1A0
S315080035D0084BD3F8843013F0200FF1D028460BF0AF
S315080035E0A6FF022C00D0F8BD002130460BF07DFF67
S315080035F0F9E700BF0040005010B50C46034650B12D
S31508003600094A127812B1094A934208D9214602207A
S31508003610FFF7ACFF10BDFEF797FB0346F0E7214620
S315080036200120FFF7A3FFF5E7A0140020005A620265
S3150800363008B50278034B1A7001210020FFF7DCFF5A
S3150800364008BD00BFA014002038B52F4B4FF000422C
S315080036505A6603F50B235C6C04F001044AF6CD3276
S315080036601A64E8B9294B5B6B13F00103FAD1274AB0
S31508003670556815F0010539D002F50052012151604F
S315080036801A462249096B11F0010F04D120498A42D2
S3150800369001D80132F5E71E498A422FD81D4625E092
S315080036A000231A4A126B12F0080F04D0184A9342E4
S315080036B001D80133F5E7164A934221D8134B03F58F
S315080036C000522021916203F5805301225A6000239B
S315080036D000E001330D4A926A12F0200F02D10C4A1B
S315080036E09342F6D90A4A93420CD8002514B1074BDF
S315080036F0084A1A640DF0D6FA284638BD0725F5E7B4
S315080037000725F3E70725F1E7009000500040095028
S315080037103F420F003254FFFF10B51A4B4FF00042DC
S315080037205A6603F50B235C6C04F001044AF6CD32A5
S315080037301A6443785B0043F00103134AD363134BBF
S315080037405B6B13F00B0FFAD1104A536823F4F87326
S31508003750817843EA01135360C178437943EA012328
S3150800376093600179837943EA012313610078FFF7AF
S315080037706BFF14B1054B064A1A640DF093FA012043
S3150800378010BD00BF00900050004000500040095096
S315080037903254FFFF10B50F2800D90F20124B5C6E6C
S315080037A003F580534FF000425A6603F50B235A6C13
S315080037B002F001024AF6CD3119640C4B5B6B13F02B
S315080037C0800FFAD109490B6A23F00F0318430862E0
S315080037D00AB1074A0A64002C03DB064B4FF0004285
S315080037E05A660DF05FFA10BD00800050004009507F
S315080037F03254FFFF00A0005010B5134B5C6E03F562
S3150800380080534FF000425A6603F50B235A6C02F0B8
S3150800381001024AF6CD3119640C4B5B6B13F0800F2D
S31508003820FAD10A490B6A23F4F85343EA00200862DE
S315080038300AB1074A0A64002C03DB064B4FF0004224
S315080038405A660DF02FFA10BD00800050004009504E
S315080038503254FFFF00A00050054B984206D0054B96
S31508003860984201D00020704757207047562070476D
S315080038700000015B00000A50436813F0010F19D0DD
S31508003880836813F0010F03D0036913F0010F09D001
S315080038900A238363436D13F0500FFBD1836C13F037
S315080038A0030FFBD100F5005301225A60436813F059
S315080038B0020FFBD1042307E000F5805304221A61A6
S315080038C000F500531A610B46591E002BF4D120232C
S315080038D003610023C360836041F20202426183618F
S315080038E083654FF4A0224262C36103628362C362A6
S315080038F04363036500F500520149D16403637047C9
S31508003900FF3F0D0338B5044615460846E1B1A368DE
S3150800391013F0010F4ED06268B0FBF5F0013812F0D3
S3150800392001023BD0636D13F0280FFBD1A36C13F093
S31508003930030F0FD1A36C13F0010F2BD1A36C13F057
S31508003940020F29D1002106E02046FFF785FF0BF07C
S3150800395007FCDCE70521636813F0010F1FD0A36895
S3150800396013F0010F03D0236913F0010F09D00A23BE
S31508003970A363636D13F0500FFBD1A36C13F0030F11
S31508003980FBD104F5005301255D60636813F0020F4F
S31508003990FBD104E00921DEE70621DCE700212369E3
S315080039A023F07F4343EA0060206132B320460BF0E0
S315080039B0CFFD22E06368A36D13F0010F00D06D0000
S315080039C0A36803F0E003402B1DD017D9602B1ED047
S315080039D0802B12D10123400105FB03F3B0FBF3F062
S315080039E020380C4B03EAC000636D13F0010FFBD1BE
S315080039F02063636D13F0010FFBD138BD2BB1202B6B
S31508003A00FBD10823E7E70623E5E71023E3E70423CA
S31508003A10E1E700BFF8FF7F00F8B504460D461746F4
S31508003A201E46436823B1616DC1F30B010029FAD123
S31508003A302046FFF721FF636923F44C5323F00F0355
S31508003A406A7B1343EA8913432A8A13436361A1688D
S31508003A5021F0804121F0E2012B7B19432B7E19438B
S31508003A606B691943A160AB681BB9A36843F00043AF
S31508003A70A360EA69002A6AD0A368127A43EA8253E5
S31508003A80A360A368EA69927A43EA4243A360A368FB
S31508003A90EA69928802F4C0421343A360A368EA69FC
S31508003AA0527843EA8203A360A368EA69527B43EA31
S31508003AB0C203A360A368EA69927B43EA0213A36080
S31508003AC0A368EA69927843EA8223A360EA6991794E
S31508003AD0D3795B0243EA8123E360EB691B78012B08
S31508003AE001D0032B03D1E36843F00403E360EB69D9
S31508003AF01B78023BDBB2012B61D9734B9C4276D013
S31508003B00724B9C4271D04FF0FF335B0103F1A04327
S31508003B1003F5703342F2944202219950EB695A7ABE
S31508003B2004F580539A62EB695B7A1BB1E36843F448
S31508003B300063E360EB69DB7A4BB1E36843F4004367
S31508003B40E360614B9C4254D0604B9C4258D03FB1D5
S31508003B5097F82030002B5BD004F5805301221A62B7
S31508003B60DEB12B7E23B104F580534FF400429A65EB
S31508003B70554B9C425BD0554B9C4258D0A36D23F4C1
S31508003B80F95323F01E0396F821201343728C13432E
S31508003B90A36504F5805301229A65052120460BF09A
S31508003BA0D7FCAA68002A40F08980297820460BF0BD
S31508003BB0CFFCA36CDB4313F4405FFAD1F8BD424B4C
S31508003BC09C4210D0414B9C420BD04FF0FF335B0117
S31508003BD003F1A04303F5703341F294420221995050
S31508003BE09CE70123F3E70023F1E701238DE7002390
S31508003BF08BE7EB691B7B03F00F03354A5367A3E793
S31508003C00EB691B7B03F00F03314AC2F880309EE74D
S31508003C10E36923F0090397F82220134397F8212034
S31508003C20134343F0010304F58052D36198E796F8ED
S31508003C302130102B1ED8244B9C4219D0234B9C4272
S31508003C4014D04FF0FF31234B01225A54738CB3F52D
S31508003C50006F23D81C4B9C421ED01C4B9C4219D08B
S31508003C604FF0FF311C4B01225A5487E70121EAE73E
S31508003C700021E8E7144B9C420AD0144B9C4205D01D
S31508003C804FF0FF31134B02225A54DFE70121F9E7BF
S31508003C900021F7E70121E5E70021E3E70A4B9C420B
S31508003CA00AD00A4B9C4205D04FF0FF310A4B02223C
S31508003CB05A5463E70121F9E70021F7E769682046C6
S31508003CC0FFF720FE71E700BF0000015B00000A5005
S31508003CD000900350A8140020A41400202DE9F84FE2
S31508003CE00C4615461E469DF828809DF82C70072A16
S31508003CF044D84FEA8209032303FA09FA00FA09F9B4
S31508003D000BF011FC384AD2F8001489EA010303EAD9
S31508003D100A034B40C2F800340BF009FC4FF0000AC6
S31508003D20072D43D8A9004FF0030909FA01F904F051
S31508003D3003048C400BF0F7FB2B4BD3F808245440B4
S31508003D4004EA09045440C3F808440BF0F0FB002EBB
S31508003D5044D0264A0123AB401360B8F1000F3FD088
S31508003D60234A1360012202FA05F5224AC2F82054B2
S31508003D70C7B3A2F6DC321360BDE8F88FA2F1080AD1
S31508003D804FEA8A09032303FA09FB00FA09F90BF03B
S31508003D90CAFB154AD2F8041489EA010303EA0B039D
S31508003DA04B40C2F804340BF0C2FBB9E74FEA8A0A63
S31508003DB04FF0030909FA0AF904F0030404FA0AF4AD
S31508003DC00BF0B1FB084BD3F80C24544004EA090461
S31508003DD05440C3F80C440BF0AAFBB8E7064AB9E707
S31508003DE0064ABEE7064AC6E700C0035010D4035089
S31508003DF014D4035000E0035010E4035014E40350B5
S31508003E0024E403502DE9F84F04460E461F46904613
S31508003E103AB183B301228A4000EB400109012C4BD9
S31508003E205A50072E2FD804EB44094FEA091909F10D
S31508003E300409DFF8A4A0B3000F2505FA03FB08FA66
S31508003E4003F50BF070FB59F80A305D4005EA0B05DF
S31508003E505D4049F80A500BF06AFBB8F1000F08D12B
S31508003E606FB3012101FA06F604EB44042401184B4A
S31508003E701E51BDE8F88F01228A4000EB4001090176
S31508003E80144B5A50CDE704EB44052D010C35DFF8E9
S31508003E904890A6F108039B000F2202FA03FA08FAD3
S31508003EA003FB0BF040FB55F809308BEA030202EAE4
S31508003EB00A025A4045F809200BF039FBCDE70121E3
S31508003EC001FA06F604EB44042401024B1E51D0E71E
S31508003ED040D0035040E0035030C0035010B50C4B9F
S31508003EE04FF40012C3F88020BFF34F8FBFF36F8FD4
S31508003EF0084B00245C65FF229A625C6021462020FC
S31508003F00FEF76EFF21462120FEF76AFF10BD00BFAF
S31508003F1000E100E00000045029B9044A012303FA2D
S31508003F2000F010607047024AF8E700BF40100450DE
S31508003F304020045010B5044601212020FEF750FF0A
S31508003F4001212120FEF74CFF114B01225A602278ED
S31508003F5012069A606178A27842EA01429A61FF22C3
S31508003F609A6200229A631A644FF000425A6503F572
S31508003F7000534FF0FF321A65064A4FF40011C2F893
S31508003F808011E3781B01DBB282F81533116010BD8E
S31508003F900000045000E100E070B50C46C3B20125EC
S31508003FA09D40214E06F500531D650968830003F1FF
S31508003FB0A04303F588235960637B00EB400106EBB9
S31508003FC001110B6694F80AC0E37A1B0543EA0C4311
S31508003FD094F80CC043EA4C53CB6522F003020A67F7
S31508003FE00BF0A8FA736D2B437365237A13B1336C00
S31508003FF02B433364637A1BB10B4A936B2B4393634E
S315080040002379A27942EA0342074B03F500518A61F4
S315080040106679E27942EA064203F58054A2614D6365
S315080040209D640BF08DFA70BD0000045010B5C0B247
S31508004030012484400BF07EFA044B5A6D22EA0402EE
S315080040405A659C620BF07CFA10BD00BF0000045054
S3150800405010B5C0B2012484400BF06CFA084BDB6A39
S31508004060234206D1064B5B6B34EA030306D00024D1
S3150800407000E000240BF064FA204610BD0124F9E79D
S315080040800000045070B50446C2F3062602F0070283
S3150800409041B942EA062242F440220634094B43F863
S315080040A0242070BD114630460BF0D5FA0546304639
S315080040B00BF0A1FA45EA00251634024B43F82450C2
S315080040C0EFE700BF00800350074B4FF480325A6673
S315080040D003F5E6239B69C3F38512827003F03F025A
S315080040E042701B0B0370704700900050014B986C90
S315080040F0D96C70470080E00F0A4B9B6813F0020FDB
S31508004100FAD1084B5B6813F0020FF5D1054BDB6952
S31508004110002BF1D1034B03F5805101224A601A6145
S31508004120704700BF00800A500A4B5B68012B00D01D
S315080041307047084B5B6813F0010F03D0054BDB692A
S31508004140002BF6D1034B02221A6103F50053012214
S315080041505A60EDE700800A5038B50546134B9B6850
S3150800416013F0020FFAD1114B5B6813F0020FF5D169
S315080041700E4BDC69002CF1D15B68012B05D02B783E
S3150800418003B10124094BDC6038BDFFF7CDFF074BAF
S315080041909B6813F0020FFAD1044B5B6813F0020F09
S315080041A0F5D1024BDB69002BF1D1E8E700800A5014
S315080041B0D8B90B78D3B101234A6812B1127843EA09
S315080041C0C2034A78A2B1022213438A6812B112784E
S315080041D043EA82138A786AB104221343CA6812B181
S315080041E0127843EA4223044A936470470023E3E7BC
S315080041F00022E9E70022F0E700800A5008B9014BDF
S315080042005964704700900A5008B9014B59647047C1
S3150800421000A00A5008B9014B1964704700A00A505B
S3150800422010B9024B186C70470020704700800A507E
S3150800423048B911B1012903D07047044BD86C7047AF
S31508004240024B186D70470020704700BF00800A5067
S3150800425040B911B1012903D07047034BDA6470479E
S31508004260014B1A65704700BF00800A5038B50446EE
S315080042700CF02DFD054DA446BCE80F000FC59CE8C3
S31508004280030085E80300002038BD00BFAC140020F9
S3150800429047F6FF739A427AD001297AD870B53F4B10
S315080042A003EBC10090F802E0704613F83130012B99
S315080042B024D03A4B03EBC1035C68002C6BD0B4F9ED
S315080042C00030934204DBB4F90230934200DC134613
S315080042D0A288FF2A2FD000252826C8229C46D21A53
S315080042E092FBF6F22A4412B22C4B03EBC1014D782D
S315080042F0954201DD002A33DA6A1E31E0274B03EBCB
S31508004300C103DB78A3EB0E0300249C4210D2A3EB77
S31508004310040CA3EB5C0C214800EBC100406830F9A3
S315080043201C00904201DC6446EFE70CF1FF33ECE732
S315080043307344D8B22AE0B4F90620B4F90860012516
S31508004340CCE75C331649A1FB03139B09013212B271
S31508004350164695420FDD04EBC201898899420AD3B5
S3150800436004EBC2018B68B1F9061001FB0C33002B74
S31508004370E7DA0023E5E7721E04EBC20292889A4246
S3150800438000D31A46724500D31046C0B270BDFF204E
S315080043907047002070470020F8E700BFAC140020E3
S315080043A0D34D621001296CD8384B13F83130012BE4
S315080043B02CD010B5354B03EBC1035C68002C62D0DA
S315080043C004F1040C314B03EBC1039B78934235D2BD
S315080043D02E4B03EBC103DB78934232D92B4B03EB0D
S315080043E0C10191F801E00EF1FF3E5FFA8EFEA38847
S315080043F0FF2B29D00023734528D2591C3CF83100DD
S3150800440091B2884222D30133DBB2F4E71F4B03EBA8
S31508004410C103DB78934200D21A461C4800EBC10060
S315080044208078121AD2B21B1A9A4200DD0022174B64
S3150800443003EBC1014B6833F912007047B4F9020067
S3150800444010BDB4F90000FBE70123D4E74FF47A71F5
S3150800445001FB02F20CEBC30CDCF80430D31ABCF9EE
S31508004460022002EBD27103EB610393FBF2F3B4F97A
S3150800447000009842E4DBB4F902009842E0DC18B286
S31508004480DEE7034870470248DAE700BFAC140020AD
S315080044900080FFFF08B50248FFF7E8FE08BD00BF29
S315080044A0EC29010830B583B004460CF033FC08B19A
S315080044B003B030BD694620460CF00BFC00B1FEE7A0
S315080044C09DF800300C4A12789342F1D0032B06D19E
S315080044D06425094920460CF0E9FB28B1FEE7204689
S315080044E003F048FA0546F4E7294620460CF0F3FBA4
S315080044F00028DDD0FEE700BF6C08002000B587B0B5
S3150800450000230193029303930493059302238DF8E2
S3150800451004300A4A02928DF80D3006228DF80E20D4
S315080045208DF8133007238DF8143001A94FF0FF30AA
S315080045300CF0EFFC07B05DF804FB00BF006A18003A
S315080045402D2822D8DFE800F0172121212121212159
S31508004550212121212121212121212121212121213D
S315080045602121212121211B212123212121211D2135
S315080045702121211F21190748704707487047074816
S315080045807047074870470748704707487047074805
S31508004590704700BFE44101087C40010890400108CB
S315080045A0B8400108D04001084440010854400108B9
S315080045B010B504464FF42F7200210DF024F880231D
S315080045C0C4F88C30054BC4F88430012384F888304D
S315080045D004F19C000AF0C2FC10BD00BFF0400108BF
S315080045E010B503460846D3F8A0202AB1D3F8A4107C
S315080045F090470024204610BD18460BF0BEFB044623
S315080046000028F7D0FFF79CFF014602480BF01DFD76
S31508004610F0E700BFF4170108F8B590F8806016B106
S3150800462000263046F8BD05460BF00DF90028F8D1EE
S31508004630012385F8803095F888300BB9374618E09D
S31508004640002385F88830D5F884101C480BF0FDFC4B
S31508004650F4E70BF0DEFC044614E028460BF0F0F80D
S31508004660E1B2284600F0D8FB0646B4F1FF3F0ED06B
S315080046706EB9D5F8B442B4F1FF3FEAD04FF0FF3334
S31508004680C5F8B432B4F1FF3FE7D10127EDE726B903
S31508004690002385F880303E46C3E728460BF0D5F858
S315080046A095F88830002BF3D0D5F8841003480BF022
S315080046B0CCFC002385F88830EAE700BFF4400108FF
S315080046C0F8B506460D4617460B78302B0DD04FF039
S315080046D0000C15F80C30002B4AD0374C1B5D13F034
S315080046E0040F66D00CF1010CF3E74B78782B04D055
S315080046F0582B0CD04FF0000CEBE70222AB5C43B111
S315080047002D495B5C13F0440F51D00132F6E70222C3
S31508004710F4E7724206F0030302F0030258BF53425D
S31508004720032B16D128460CF080FF0238013608D430
S31508004730B310B0EBA60F06D09842ACBF00200120FC
S3150800474038E00336F4E7A87837288CBF0020012024
S3150800475030E028460CF069FF831E3246002E05DB42
S31508004760B3EBA20FD4BF0120002023E0F21CF7E729
S315080047700A220021284609F051FF02460C46202E3F
S3150800478011D02FB151EA000302D0421E61F1000494
S315080047900123B340013B1340002C08BF93420CBFD2
S315080047A00120002006E0B1FA81F0400902E000206D
S315080047B000E00020F8BD00BFD180010803787B2BFC
S315080047C01CD14FF0000C0123C25C7D2A0ED00E4985
S315080047D0515C11F0440F03D00CF1010C0133F3E7DF
S315080047E0202A01D0002070470133EDE718444378AA
S315080047F033B91CF0010F05D101207047002070471E
S315080048000020704700207047D1800108212816D85B
S3150800481021283AD8DFE800F0113B191B1D1F212378
S3150800482039393939393939392527292B2D2F313352
S315080048303939393939393939353718487047FE28F9
S3150800484027D0FF2827D116487047164870471648BC
S3150800485070471648704716487047164870471648F6
S3150800486070471648704716487047164870471648E6
S3150800487070471648704716487047164870471648D6
S3150800488070471648704716487047164870471648C6
S315080048907047164870471348704700BFA44101087F
S315080048A0B4410108084101081041010818410108EE
S315080048B02041010828410108304101083441010816
S315080048C0404101084C41010858410108604101086E
S315080048D06C41010878410108844101088C410108AE
S315080048E098410108F840010800410108AC41010857
S315080048F070B506460D460CF098FE044630460BF099
S31508004900A4FB03E003480BF0A0FB0134AC42F9D347
S3150800491070BD00BFA01801082DE9F84F0446022112
S315080049203248FFF7E5FF1E212068FFF7E1FF6368BD
S3150800493058680BF08AFB2E480BF087FB63681A7BD6
S31508004940FD2A51D803F10C09D3F808A050460CF0FB
S315080049506CFE80464FF0FF34002510E02B200BF04C
S3150800496068FB36E00BF065FB01341AF804001F28D3
S3150800497001D04445F6DB1E480BF067FB0135AB4614
S3150800498019F80560FF2E2FD03046FFF73FFF074680
S31508004990B8F1000F00DD0134202EEFD0134E0221AE
S315080049A03046FFF7A5FF1E213046FFF7A1FF114845
S315080049B00BF04BFB104938460CF02DFE00B90F4F93
S315080049C039460F480BF041FBCB449BF80130202BAE
S315080049D0C4D00C480BF039FBB8F1000FCBDD1AF840
S315080049E004301F2BC7D0C0E7BDE8F88FE4410108A3
S315080049F0A0190108BC41010898410108B8410108FD
S31508004A00F4400108C04101082DE9F04F93B08146F2
S31508004A10049105921C4601931C9E0CF006FE069016
S31508004A200023236033600AAA09A948460BF035FB20
S31508004A30002840F0BC800A980CF0F7FD2060D9F8F1
S31508004A409C30029300231C4603939A469FE0002459
S31508004A502AE0013428E0099B013B53454ED00F68F4
S31508004A6058460CF0E2FD336803440133336001E035
S31508004A7001333360336819F80320002AF8D00AF1A5
S31508004A80010A009C10E0039B013303934246DDF8BC
S31508004A9014804146049D28460AF0A2FA474A414630
S31508004AA028460AF09DFA013404EB440307EB830514
S31508004AB057F82330002B33D0099B534530DB2B7A2C
S31508004AC0002BC6D1D9F894203368D21A019B1A60F4
S31508004AD012AB03EB8A0353F820BCD5F80080414695
S31508004AE058460CF0AAFD00900028DCD140460CF090
S31508004AF09CFD844669680A7BFE2AACD0D9F89430B6
S31508004B0030681B1A654663450DDC04980CF08DFD6C
S31508004B1005447B2DB7D92A4A059904980AF060FA04
S31508004B204B46069A28E0FE2ABDD1099B013B534510
S31508004B30B9D10D680794009C039FDDF81080DDF855
S31508004B4014B004EB440355F823205AB1594640469D
S31508004B500AF046FA194A594640460AF041FA013718
S31508004B600134EEE7079C0397069B33600023019AFE
S31508004B701360D5E70133013A002A05DD19780029C3
S31508004B80F8D120211970F5E7029B1B680293029B56
S31508004B907BB1029B9F68002FF6D019F80430202BB2
S31508004BA07FF455AF3368013333600134F5E70023EA
S31508004BB00393039813B0BDE8F08F00BFA01801084F
S31508004BC0C44101082DE9F04786B004460F4616464B
S31508004BD01D46DDF83890DDF83C8000238DF8173047
S31508004BE02B6089F8003088F800302B6852F82310BB
S31508004BF016480BF03CF840B92B6801332B604FF090
S31508004C00010AD4F89C40002003E04FF0000AF8E7B8
S31508004C10246894B1A0680028FAD0CDF80C80CDF8A5
S31508004C200890019500963B460DF1170200210BF0FE
S31508004C3022F89DF81730002BEAD0BAF1000F02D0FF
S31508004C40012388F8003006B0BDE8F087CC4101089A
S31508004C5070B5ADF5447D04460021A4917C22A5A833
S31508004C600CF0D1FCA3AB0093A2AB8022A4A92046EA
S31508004C70FFF7CAFE012804D0012840DC0DF5447D63
S31508004C8070BDA4A80CF0D1FC0546A299431AA39AB4
S31508004C900A442244A4A8014404E011F8010B02F8CE
S31508004CA0010B013B002BF8DC00231370D4F890604D
S31508004CB00AE0D4F8901020460BF003F9D4F89030A7
S31508004CC00133C4F890300136A29AA39B1344B34229
S31508004CD0EFDCAD1AD4F894302B44C4F89430D4F8E9
S31508004CE090302B44C4F89030A4AB9C1804E014F818
S31508004CF0010B0BF09EF9013D002DF8DCBEE7802282
S31508004D00002102A80CF07FFC4FF40072002122A8B3
S31508004D100CF079FC0125002300E0013303F5447209
S31508004D206A4412F8802C3AB1202AF6D15A1C22A9D4
S31508004D3041F825200135F0E722AA42F82530A4A833
S31508004D400CF073FC002115E0013222AB53F8223037
S31508004D50834209D00B4403F544736B4413F8803C33
S31508004D606345F1D0002300E0012363B102AB03F8E9
S31508004D7001C001318D4209DB01F544736B4413F818
S31508004D8080CC0022E1E702AB00225A54D4F89050B6
S31508004D900AE0D4F8901020460BF093F8D4F8903037
S31508004DA00133C4F890300135A29BAB42F1DC2346AF
S31508004DB0174AA4A917480BF048F902A80CF035FCC5
S31508004DC0A29AA39B1344E11802AB9D18821A0EE01F
S31508004DD015F8013B01F8013BD4F890300133C4F8CB
S31508004DE09030D4F894300133C4F89430013A002A4C
S31508004DF0EEDC00230B70A29C02AB1D19041B04E019
S31508004E0015F8010B0BF015F9013C002CF8DC35E719
S31508004E10F0400108D44101082DE9F04104460D4649
S31508004E20D0F89060D0F8947090F89830012B0AD09A
S31508004E30012B0ED9022B00F0BF80032B00F0CB808C
S31508004E400020BDE8F0810A29F2D1002084F89800F4
S31508004E50F7E71B2D27D00D2D2AD0002384F898308C
S31508004E60082D29D07F2D63D00D2D00F081800A2DC5
S31508004E707ED0092D00F08980D4F88C30013BBB42E6
S31508004E8040F3DC80BE42C0F28580A5550136C4F8E1
S31508004E909060D4F894300133C4F8943028460BF067
S31508004EA0C8F80020CDE7022384F898300020C8E728
S31508004EB0012384F89830D3E7002E01DDBE420CD0DA
S31508004EC0002E01DDBE4216DB002E00F0B580C4F8C8
S31508004ED09060C4F894700020B3E708200BF0A9F896
S31508004EE020200BF0A6F808200BF0A3F8013E0023BB
S31508004EF0A355013FEBE706F1FF3808200BF099F8B8
S31508004F0004EB0805A7EB0802A11928460CF061FB7B
S31508004F100023E35529464B480BF097F8013F3D46D9
S31508004F2002E00AF0D3FF013D4545FADC4646CEE7E6
S31508004F30002F01DDBE4201DB002082E7A519711CA6
S31508004F40BA1B214428460CF044FB0023E3552946A6
S31508004F503D480BF07AF803E008200BF06AF8013FA9
S31508004F60B742F9DCD4F89430013BC4F89430E3E74F
S31508004F700D200BF05EF80A200BF05BF80023C4F84E
S31508004F809030C4F8943001205BE72046FFF760FEB6
S31508004F90002056E7701C04EB0608BA1B414620445D
S31508004FA00CF017FB40460BF050F802E00AF08EFFB3
S31508004FB0013FB742FADA68E75B2D04D1032384F888
S31508004FC0983000203DE7002384F89830294620468B
S31508004FD0FFF722FF35E7002384F89830413D032D7B
S31508004FE02ED8DFE805F002080F1E012120460AF038
S31508004FF0C2FF002025E74FF0FF3120460AF0BBFF2D
S3150800500000201EE7BE4201DB00201AE73146204693
S315080050100AF057FFD4F890300133C4F890300020D6
S315080050200FE7002E01DC00200BE7013EC4F8906074
S315080050300AF04CFF002004E7002002E7002000E702
S315080050400020FEE6E0410108E841010800B583B00A
S31508005050094B93E803000090ADF80410090C8DF88D
S3150800506006106846FEF758FB0C20FEF793FB002057
S3150800507003B05DF804FB00BFEC41010810B582B02F
S31508005080074A536F43F001035367002400948DF8D1
S3150800509004406846FEF760FA204602B010BD00BF1D
S315080050A00040005010B58AB0EC461F4C0FCCACE857
S315080050B00F000FCCACE80F0094E803008CE803005F
S315080050C01A4BD3F84C3113F4002F10D1174BD3F8E1
S315080050D05041E4B2B4F1FF3F13D08DF81940FEF702
S315080050E0FBF824180FD4FF2C0EDDFF240CE04FF03C
S315080050F0FF340F4B1B884FF6FF729342EAD01C46CB
S31508005100E8E76424E9E700248DF818400948FCF725
S3150800511051FE6846FEF70EF84FF4FA70FEF72CF9C2
S3150800512000200AB010BD00BFF44101080080E00F5E
S315080051300001E00FC017530210B586B00DF1040C3C
S31508005140094C0FCCACE80F002368CCF800302523B7
S315080051508DF8053001A8FEF7C5F86420FEF706F9B4
S31508005160002006B010BD00BF1C4201086FF0040302
S3150800517007E003F00F010A4A0A4450211176013369
S315080051805BB24B2B09DC002BF3DB03F1604202F523
S315080051906142502182F80013F1E70020704700BFF2
S315080051A0FCEC00E010B501F0BFFA044608B1204651
S315080051B010BD01F089FB4FF4167100FB01F101F5F2
S315080051C0742101F23F210A4BA3FB0131890C094BDB
S315080051D01960002308E0084A42F8231007480268C5
S315080051E00A4402600133DBB2092BF4D9DFE700BFBA
S315080051F083DE1B4304150020D8140020D414002095
S3150800520008B5044B01221A700BF0C2FA024B18605B
S3150800521008BD00BFC118002000150020024B01225E
S315080052201A70024B18607047C2180020D01400206C
S3150800523038B5304B1B781BB92F4A1278002A3ED056
S315080052401BB12D4B1B78002B3AD12B4B1B78002B0F
S315080052503CD1284B1B78002B44D00BF099FA274BEE
S315080052601B68C01A264B1860254B196801B901211D
S31508005270234B196023480378234C54F82320A2EBC8
S31508005280010C224D2A68A2EB0C022A6044F823106E
S3150800529009321F49A1FB0242D2081E4C2260013383
S315080052A0DBB20370A1FB0312D20802EB8202A3EB66
S315080052B04203037000230F4A13700F4A137038BD58
S315080052C000230C4A13700C4A1370F8E70BF060FAC7
S315080052D0114B1B68984201D9002BBAD1064B002204
S315080052E01A70ECE70BF054FA0B4B1B68C01A044B08
S315080052F01860B9E7C1180020C21800200015002060
S31508005300CC140020C3180020D8140020D414002080
S31508005310CDCCCCCC04150020D0140020014B186845
S31508005320704700BF0415002010B4124C202384F8DF
S315080053302C33114B4FF480125A66104B03F500526A
S315080053400F48506704215167106711674FF4805260
S31508005350C4F8842162609A18506751679A6A22F0E5
S3150800536000729A629A6A42F410629A625DF8044B75
S31508005370704700BF00E100E0009000500040005A6E
S31508005380010000A0024603E0002318463BB932B1EB
S31508005390034B9B6D13F0050FF6D00123F5E7704715
S315080053A00040005A10B5174B1C6F14F004030AD1BD
S315080053B014F0010319D114F0005301D0124A1367EF
S315080053C0002C19DB10BD104A136708239362FFF7F8
S315080053D02FFF00F015FF00F0F3FE012001F06EFB31
S315080053E004210020FEF716FFE2E7074A1367FFF7D6
S315080053F01FFF00F0E5FEDEE704F00044024B1C67E1
S31508005400E0E700BF0040005A0060005A10B50446A5
S315080054100AF089F8024B1C600AF089F8002010BDD2
S315080054200815002010B50AF07EF8034B1C680AF030
S315080054307EF8204610BD00BF0815002038B50C467A
S315080054401546014640B12B462246064801F090FF14
S31508005450002805DD002038BDFFF7E4FF0146F2E726
S315080054603720F8E731020108012900D9704710B53D
S31508005470064B1C686C3C05E00521206C0AF068F8B0
S31508005480E46E6C3C14F16C0FF6D110BD0C150020BF
S3150800549038B50446236C9B6C13F0400FFAD00023F2
S315080054A01A46E16C94F84800FEF7ACFC00231A464D
S315080054B0616D94F85000FEF7A5FC94F8683013F077
S315080054C0010F20D194F8683013F0020F23D1236C12
S315080054D003F5005301221A65236C03F500530422D1
S315080054E01A650021206C0AF033F80021606CFDF77C
S315080054F077FC0F4D04F16C01284609F036FD2B6840
